{
	"contracts/oracle/VRFDirectFunding.sol": {
		"VRFDirectFunding": {
			"abi": [
				{
					"inputs": [
						{
							"internalType": "address",
							"name": "_link",
							"type": "address"
						},
						{
							"internalType": "address",
							"name": "_vrfV2Wrapper",
							"type": "address"
						}
					],
					"stateMutability": "nonpayable",
					"type": "constructor"
				},
				{
					"anonymous": false,
					"inputs": [
						{
							"indexed": true,
							"internalType": "address",
							"name": "from",
							"type": "address"
						},
						{
							"indexed": true,
							"internalType": "address",
							"name": "to",
							"type": "address"
						}
					],
					"name": "OwnershipTransferRequested",
					"type": "event"
				},
				{
					"anonymous": false,
					"inputs": [
						{
							"indexed": true,
							"internalType": "address",
							"name": "from",
							"type": "address"
						},
						{
							"indexed": true,
							"internalType": "address",
							"name": "to",
							"type": "address"
						}
					],
					"name": "OwnershipTransferred",
					"type": "event"
				},
				{
					"anonymous": false,
					"inputs": [
						{
							"indexed": false,
							"internalType": "uint256",
							"name": "requestId",
							"type": "uint256"
						},
						{
							"indexed": false,
							"internalType": "uint256[]",
							"name": "randomWords",
							"type": "uint256[]"
						},
						{
							"indexed": false,
							"internalType": "uint256",
							"name": "paid",
							"type": "uint256"
						}
					],
					"name": "RequestFulFilled",
					"type": "event"
				},
				{
					"anonymous": false,
					"inputs": [
						{
							"indexed": false,
							"internalType": "uint256",
							"name": "requestId",
							"type": "uint256"
						},
						{
							"indexed": false,
							"internalType": "uint32",
							"name": "numWords",
							"type": "uint32"
						}
					],
					"name": "RequestSent",
					"type": "event"
				},
				{
					"inputs": [],
					"name": "acceptOwnership",
					"outputs": [],
					"stateMutability": "nonpayable",
					"type": "function"
				},
				{
					"inputs": [
						{
							"internalType": "uint256",
							"name": "_requestId",
							"type": "uint256"
						}
					],
					"name": "getResult",
					"outputs": [
						{
							"internalType": "uint256[]",
							"name": "",
							"type": "uint256[]"
						}
					],
					"stateMutability": "view",
					"type": "function"
				},
				{
					"inputs": [],
					"name": "lastRequestId",
					"outputs": [
						{
							"internalType": "uint256",
							"name": "",
							"type": "uint256"
						}
					],
					"stateMutability": "view",
					"type": "function"
				},
				{
					"inputs": [],
					"name": "owner",
					"outputs": [
						{
							"internalType": "address",
							"name": "",
							"type": "address"
						}
					],
					"stateMutability": "view",
					"type": "function"
				},
				{
					"inputs": [
						{
							"internalType": "uint256",
							"name": "_requestId",
							"type": "uint256"
						},
						{
							"internalType": "uint256[]",
							"name": "_randomWords",
							"type": "uint256[]"
						}
					],
					"name": "rawFulfillRandomWords",
					"outputs": [],
					"stateMutability": "nonpayable",
					"type": "function"
				},
				{
					"inputs": [
						{
							"internalType": "uint256",
							"name": "",
							"type": "uint256"
						}
					],
					"name": "requestIds",
					"outputs": [
						{
							"internalType": "uint256",
							"name": "",
							"type": "uint256"
						}
					],
					"stateMutability": "view",
					"type": "function"
				},
				{
					"inputs": [],
					"name": "requestRandom",
					"outputs": [
						{
							"internalType": "uint256",
							"name": "",
							"type": "uint256"
						}
					],
					"stateMutability": "nonpayable",
					"type": "function"
				},
				{
					"inputs": [
						{
							"internalType": "uint256",
							"name": "",
							"type": "uint256"
						}
					],
					"name": "requests",
					"outputs": [
						{
							"internalType": "uint256",
							"name": "paid",
							"type": "uint256"
						},
						{
							"internalType": "bool",
							"name": "fulfilled",
							"type": "bool"
						}
					],
					"stateMutability": "view",
					"type": "function"
				},
				{
					"inputs": [
						{
							"internalType": "uint32",
							"name": "_callbackGasLimit",
							"type": "uint32"
						}
					],
					"name": "setCallbackGasLimit",
					"outputs": [],
					"stateMutability": "nonpayable",
					"type": "function"
				},
				{
					"inputs": [
						{
							"internalType": "uint32",
							"name": "_numWords",
							"type": "uint32"
						}
					],
					"name": "setNumWords",
					"outputs": [],
					"stateMutability": "nonpayable",
					"type": "function"
				},
				{
					"inputs": [
						{
							"internalType": "uint16",
							"name": "_requestConfirmations",
							"type": "uint16"
						}
					],
					"name": "setRequestConfirmations",
					"outputs": [],
					"stateMutability": "nonpayable",
					"type": "function"
				},
				{
					"inputs": [
						{
							"internalType": "address",
							"name": "to",
							"type": "address"
						}
					],
					"name": "transferOwnership",
					"outputs": [],
					"stateMutability": "nonpayable",
					"type": "function"
				},
				{
					"inputs": [],
					"name": "withdraw",
					"outputs": [],
					"stateMutability": "nonpayable",
					"type": "function"
				}
			],
			"devdoc": {
				"kind": "dev",
				"methods": {},
				"version": 1
			},
			"evm": {
				"assembly": "    /* \"contracts/oracle/VRFDirectFunding.sol\":261:2772  contract VRFDirectFunding is VRFV2WrapperConsumerBase, ConfirmedOwner {... */\n  mstore(0x40, 0xc0)\n    /* \"contracts/oracle/VRFDirectFunding.sol\":338:370  uint32 callbackGasLimit = 100000 */\n  0x01\n  dup1\n  sload\n  not(sub(shl(0xf0, 0x01), shl(0xa0, 0x01)))\n    /* \"contracts/oracle/VRFDirectFunding.sol\":403:434  uint16 requestConfirmations = 3 */\n  and\n  0x0300000001000186a00000000000000000000000000000000000000000\n  or\n  swap1\n  sstore\n    /* \"contracts/oracle/VRFDirectFunding.sol\":822:960  constructor(address _link, address _vrfV2Wrapper) ... */\n  callvalue\n  dup1\n  iszero\n  tag_1\n  jumpi\n  0x00\n  dup1\n  revert\ntag_1:\n  pop\n  mload(0x40)\n  sub(codesize, bytecodeSize)\n  dup1\n  bytecodeSize\n  dup4\n  codecopy\n  dup2\n  add\n  0x40\n  dup2\n  swap1\n  mstore\n  tag_2\n  swap2\n  tag_3\n  jump\t// in\ntag_2:\n  sub(shl(0xa0, 0x01), 0x01)\n    /* \"@chainlink/contracts/src/v0.8/vrf/VRFV2WrapperConsumerBase.sol\":1921:1953  LINK = LinkTokenInterface(_link) */\n  dup1\n  dup4\n  and\n  0x80\n  mstore\n    /* \"@chainlink/contracts/src/v0.8/vrf/VRFV2WrapperConsumerBase.sol\":1959:2012  VRF_V2_WRAPPER = VRFV2WrapperInterface(_vrfV2Wrapper) */\n  dup2\n  and\n  0xa0\n  mstore\n    /* \"contracts/oracle/VRFDirectFunding.sol\":946:956  msg.sender */\n  caller\n  dup1\n    /* \"@chainlink/contracts/src/v0.8/shared/access/ConfirmedOwner.sol\":345:346  0 */\n  0x00\n    /* \"contracts/oracle/VRFDirectFunding.sol\":946:956  msg.sender */\n  dup2\n    /* \"@chainlink/contracts/src/v0.8/shared/access/ConfirmedOwnerWithProposal.sol\":529:588  require(newOwner != address(0), \"Cannot set owner to zero\") */\n  tag_10\n  jumpi\n  mload(0x40)\n  shl(0xe5, 0x461bcd)\n  dup2\n  mstore\n    /* \"#utility.yul\":696:698   */\n  0x20\n    /* \"@chainlink/contracts/src/v0.8/shared/access/ConfirmedOwnerWithProposal.sol\":529:588  require(newOwner != address(0), \"Cannot set owner to zero\") */\n  0x04\n  dup3\n  add\n    /* \"#utility.yul\":678:699   */\n  mstore\n    /* \"#utility.yul\":735:737   */\n  0x18\n    /* \"#utility.yul\":715:733   */\n  0x24\n  dup3\n  add\n    /* \"#utility.yul\":708:738   */\n  mstore\n    /* \"#utility.yul\":774:800   */\n  0x43616e6e6f7420736574206f776e657220746f207a65726f0000000000000000\n    /* \"#utility.yul\":754:772   */\n  0x44\n  dup3\n  add\n    /* \"#utility.yul\":747:801   */\n  mstore\n    /* \"#utility.yul\":818:836   */\n  0x64\n  add\n    /* \"@chainlink/contracts/src/v0.8/shared/access/ConfirmedOwnerWithProposal.sol\":529:588  require(newOwner != address(0), \"Cannot set owner to zero\") */\ntag_11:\n  mload(0x40)\n  dup1\n  swap2\n  sub\n  swap1\n  revert\ntag_10:\n    /* \"@chainlink/contracts/src/v0.8/shared/access/ConfirmedOwnerWithProposal.sol\":595:602  s_owner */\n  0x00\n    /* \"@chainlink/contracts/src/v0.8/shared/access/ConfirmedOwnerWithProposal.sol\":595:613  s_owner = newOwner */\n  dup1\n  sload\n  not(sub(shl(0xa0, 0x01), 0x01))\n  and\n  sub(shl(0xa0, 0x01), 0x01)\n  dup5\n  dup2\n  and\n  swap2\n  swap1\n  swap2\n  or\n  swap1\n  swap2\n  sstore\n    /* \"@chainlink/contracts/src/v0.8/shared/access/ConfirmedOwnerWithProposal.sol\":623:649  pendingOwner != address(0) */\n  dup2\n  and\n  iszero\n    /* \"@chainlink/contracts/src/v0.8/shared/access/ConfirmedOwnerWithProposal.sol\":619:698  if (pendingOwner != address(0)) {... */\n  tag_14\n  jumpi\n    /* \"@chainlink/contracts/src/v0.8/shared/access/ConfirmedOwnerWithProposal.sol\":659:691  _transferOwnership(pendingOwner) */\n  tag_14\n    /* \"@chainlink/contracts/src/v0.8/shared/access/ConfirmedOwnerWithProposal.sol\":678:690  pendingOwner */\n  dup2\n    /* \"@chainlink/contracts/src/v0.8/shared/access/ConfirmedOwnerWithProposal.sol\":659:677  _transferOwnership */\n  tag_15\n    /* \"@chainlink/contracts/src/v0.8/shared/access/ConfirmedOwnerWithProposal.sol\":659:691  _transferOwnership(pendingOwner) */\n  jump\t// in\ntag_14:\n    /* \"@chainlink/contracts/src/v0.8/shared/access/ConfirmedOwnerWithProposal.sol\":471:702  constructor(address newOwner, address pendingOwner) {... */\n  pop\n  pop\n    /* \"@chainlink/contracts/src/v0.8/shared/access/ConfirmedOwner.sol\":270:351  constructor(address newOwner) ConfirmedOwnerWithProposal(newOwner, address(0)) {} */\n  pop\n    /* \"contracts/oracle/VRFDirectFunding.sol\":822:960  constructor(address _link, address _vrfV2Wrapper) ... */\n  pop\n  pop\n    /* \"contracts/oracle/VRFDirectFunding.sol\":261:2772  contract VRFDirectFunding is VRFV2WrapperConsumerBase, ConfirmedOwner {... */\n  jump(tag_24)\n    /* \"@chainlink/contracts/src/v0.8/shared/access/ConfirmedOwnerWithProposal.sol\":1482:1670  function _transferOwnership(address to) private {... */\ntag_15:\n    /* \"@chainlink/contracts/src/v0.8/shared/access/ConfirmedOwnerWithProposal.sol\":1550:1560  msg.sender */\n  caller\n  sub(shl(0xa0, 0x01), 0x01)\n    /* \"@chainlink/contracts/src/v0.8/shared/access/ConfirmedOwnerWithProposal.sol\":1544:1560  to != msg.sender */\n  dup3\n  and\n  sub\n    /* \"@chainlink/contracts/src/v0.8/shared/access/ConfirmedOwnerWithProposal.sol\":1536:1588  require(to != msg.sender, \"Cannot transfer to self\") */\n  tag_20\n  jumpi\n  mload(0x40)\n  shl(0xe5, 0x461bcd)\n  dup2\n  mstore\n    /* \"#utility.yul\":1049:1051   */\n  0x20\n    /* \"@chainlink/contracts/src/v0.8/shared/access/ConfirmedOwnerWithProposal.sol\":1536:1588  require(to != msg.sender, \"Cannot transfer to self\") */\n  0x04\n  dup3\n  add\n    /* \"#utility.yul\":1031:1052   */\n  mstore\n    /* \"#utility.yul\":1088:1090   */\n  0x17\n    /* \"#utility.yul\":1068:1086   */\n  0x24\n  dup3\n  add\n    /* \"#utility.yul\":1061:1091   */\n  mstore\n    /* \"#utility.yul\":1127:1152   */\n  0x43616e6e6f74207472616e7366657220746f2073656c66000000000000000000\n    /* \"#utility.yul\":1107:1125   */\n  0x44\n  dup3\n  add\n    /* \"#utility.yul\":1100:1153   */\n  mstore\n    /* \"#utility.yul\":1170:1188   */\n  0x64\n  add\n    /* \"@chainlink/contracts/src/v0.8/shared/access/ConfirmedOwnerWithProposal.sol\":1536:1588  require(to != msg.sender, \"Cannot transfer to self\") */\n  tag_11\n    /* \"#utility.yul\":847:1194   */\n  jump\n    /* \"@chainlink/contracts/src/v0.8/shared/access/ConfirmedOwnerWithProposal.sol\":1536:1588  require(to != msg.sender, \"Cannot transfer to self\") */\ntag_20:\n    /* \"@chainlink/contracts/src/v0.8/shared/access/ConfirmedOwnerWithProposal.sol\":1595:1609  s_pendingOwner */\n  0x01\n    /* \"@chainlink/contracts/src/v0.8/shared/access/ConfirmedOwnerWithProposal.sol\":1595:1614  s_pendingOwner = to */\n  dup1\n  sload\n  not(sub(shl(0xa0, 0x01), 0x01))\n  and\n  sub(shl(0xa0, 0x01), 0x01)\n  dup4\n  dup2\n  and\n  swap2\n  dup3\n  or\n  swap1\n  swap3\n  sstore\n  0x00\n    /* \"@chainlink/contracts/src/v0.8/shared/access/ConfirmedOwnerWithProposal.sol\":1653:1660  s_owner */\n  dup1\n  sload\n    /* \"@chainlink/contracts/src/v0.8/shared/access/ConfirmedOwnerWithProposal.sol\":1626:1665  OwnershipTransferRequested(s_owner, to) */\n  mload(0x40)\n    /* \"@chainlink/contracts/src/v0.8/shared/access/ConfirmedOwnerWithProposal.sol\":1595:1614  s_pendingOwner = to */\n  swap3\n  swap4\n    /* \"@chainlink/contracts/src/v0.8/shared/access/ConfirmedOwnerWithProposal.sol\":1653:1660  s_owner */\n  and\n  swap2\n    /* \"@chainlink/contracts/src/v0.8/shared/access/ConfirmedOwnerWithProposal.sol\":1626:1665  OwnershipTransferRequested(s_owner, to) */\n  0xed8889f560326eb138920d842192f0eb3dd22b4f139c87a2c57538e05bae1278\n  swap2\n  swap1\n  log3\n    /* \"@chainlink/contracts/src/v0.8/shared/access/ConfirmedOwnerWithProposal.sol\":1482:1670  function _transferOwnership(address to) private {... */\n  pop\n  jump\t// out\n    /* \"#utility.yul\":14:191   */\ntag_23:\n    /* \"#utility.yul\":93:106   */\n  dup1\n  mload\n  sub(shl(0xa0, 0x01), 0x01)\n    /* \"#utility.yul\":135:166   */\n  dup2\n  and\n    /* \"#utility.yul\":125:167   */\n  dup2\n  eq\n    /* \"#utility.yul\":115:185   */\n  tag_26\n  jumpi\n    /* \"#utility.yul\":181:182   */\n  0x00\n    /* \"#utility.yul\":178:179   */\n  dup1\n    /* \"#utility.yul\":171:183   */\n  revert\n    /* \"#utility.yul\":115:185   */\ntag_26:\n    /* \"#utility.yul\":14:191   */\n  swap2\n  swap1\n  pop\n  jump\t// out\n    /* \"#utility.yul\":196:489   */\ntag_3:\n    /* \"#utility.yul\":275:281   */\n  0x00\n    /* \"#utility.yul\":283:289   */\n  dup1\n    /* \"#utility.yul\":336:338   */\n  0x40\n    /* \"#utility.yul\":324:333   */\n  dup4\n    /* \"#utility.yul\":315:322   */\n  dup6\n    /* \"#utility.yul\":311:334   */\n  sub\n    /* \"#utility.yul\":307:339   */\n  slt\n    /* \"#utility.yul\":304:356   */\n  iszero\n  tag_28\n  jumpi\n    /* \"#utility.yul\":352:353   */\n  0x00\n    /* \"#utility.yul\":349:350   */\n  dup1\n    /* \"#utility.yul\":342:354   */\n  revert\n    /* \"#utility.yul\":304:356   */\ntag_28:\n    /* \"#utility.yul\":375:415   */\n  tag_29\n    /* \"#utility.yul\":405:414   */\n  dup4\n    /* \"#utility.yul\":375:415   */\n  tag_23\n  jump\t// in\ntag_29:\n    /* \"#utility.yul\":365:415   */\n  swap2\n  pop\n    /* \"#utility.yul\":434:483   */\n  tag_30\n    /* \"#utility.yul\":479:481   */\n  0x20\n    /* \"#utility.yul\":468:477   */\n  dup5\n    /* \"#utility.yul\":464:482   */\n  add\n    /* \"#utility.yul\":434:483   */\n  tag_23\n  jump\t// in\ntag_30:\n    /* \"#utility.yul\":424:483   */\n  swap1\n  pop\n    /* \"#utility.yul\":196:489   */\n  swap3\n  pop\n  swap3\n  swap1\n  pop\n  jump\t// out\n    /* \"#utility.yul\":847:1194   */\ntag_24:\n    /* \"contracts/oracle/VRFDirectFunding.sol\":261:2772  contract VRFDirectFunding is VRFV2WrapperConsumerBase, ConfirmedOwner {... */\n  mload(0x80)\n  mload(0xa0)\n  codecopy(0x00, dataOffset(sub_0), dataSize(sub_0))\n  0x00\n  assignImmutable(\"0xb54132232922229e38cc95c863488521e95e5e7a61a99a0c1f7114e9af332ed3\")\n  0x00\n  assignImmutable(\"0x1ec028d8f61438d0c8fe7f648326da239a9b9b5acd20368337c73966e8c44e82\")\n  return(0x00, dataSize(sub_0))\nstop\n\nsub_0: assembly {\n        /* \"contracts/oracle/VRFDirectFunding.sol\":261:2772  contract VRFDirectFunding is VRFV2WrapperConsumerBase, ConfirmedOwner {... */\n      mstore(0x40, 0x80)\n      callvalue\n      dup1\n      iszero\n      tag_1\n      jumpi\n      0x00\n      dup1\n      revert\n    tag_1:\n      pop\n      jumpi(tag_2, lt(calldatasize, 0x04))\n      shr(0xe0, calldataload(0x00))\n      dup1\n      0x8da5cb5b\n      gt\n      tag_16\n      jumpi\n      dup1\n      0xda9f7550\n      gt\n      tag_17\n      jumpi\n      dup1\n      0xda9f7550\n      eq\n      tag_12\n      jumpi\n      dup1\n      0xf2fde38b\n      eq\n      tag_13\n      jumpi\n      dup1\n      0xf30c07d3\n      eq\n      tag_14\n      jumpi\n      dup1\n      0xfc2a88c3\n      eq\n      tag_15\n      jumpi\n      0x00\n      dup1\n      revert\n    tag_17:\n      dup1\n      0x8da5cb5b\n      eq\n      tag_9\n      jumpi\n      dup1\n      0x995e4339\n      eq\n      tag_10\n      jumpi\n      dup1\n      0xa4eb718c\n      eq\n      tag_11\n      jumpi\n      0x00\n      dup1\n      revert\n    tag_16:\n      dup1\n      0x1fe543e3\n      eq\n      tag_3\n      jumpi\n      dup1\n      0x3ccfd60b\n      eq\n      tag_4\n      jumpi\n      dup1\n      0x79ba5097\n      eq\n      tag_5\n      jumpi\n      dup1\n      0x81d12c58\n      eq\n      tag_6\n      jumpi\n      dup1\n      0x8796ba8c\n      eq\n      tag_7\n      jumpi\n      dup1\n      0x8824f5a7\n      eq\n      tag_8\n      jumpi\n    tag_2:\n      0x00\n      dup1\n      revert\n        /* \"@chainlink/contracts/src/v0.8/vrf/VRFV2WrapperConsumerBase.sol\":3398:3631  function rawFulfillRandomWords(uint256 _requestId, uint256[] memory _randomWords) external {... */\n    tag_3:\n      tag_18\n      tag_19\n      calldatasize\n      0x04\n      tag_20\n      jump\t// in\n    tag_19:\n      tag_21\n      jump\t// in\n    tag_18:\n      stop\n        /* \"contracts/oracle/VRFDirectFunding.sol\":2165:2370  function withdraw() external onlyOwner() {... */\n    tag_4:\n      tag_18\n      tag_23\n      jump\t// in\n        /* \"@chainlink/contracts/src/v0.8/shared/access/ConfirmedOwnerWithProposal.sol\":1001:1266  function acceptOwnership() external override {... */\n    tag_5:\n      tag_18\n      tag_25\n      jump\t// in\n        /* \"contracts/oracle/VRFDirectFunding.sol\":554:597  mapping(uint256 => Request) public requests */\n    tag_6:\n      tag_26\n      tag_27\n      calldatasize\n      0x04\n      tag_28\n      jump\t// in\n    tag_27:\n      mstore(0x20, 0x02)\n      0x00\n      swap1\n      dup2\n      mstore\n      0x40\n      swap1\n      keccak256\n      dup1\n      sload\n      0x01\n      swap1\n      swap2\n      add\n      sload\n      0xff\n      and\n      dup3\n      jump\n    tag_26:\n      0x40\n      dup1\n      mload\n        /* \"#utility.yul\":1687:1712   */\n      swap3\n      dup4\n      mstore\n        /* \"#utility.yul\":1755:1769   */\n      swap1\n      iszero\n        /* \"#utility.yul\":1748:1770   */\n      iszero\n        /* \"#utility.yul\":1743:1745   */\n      0x20\n        /* \"#utility.yul\":1728:1746   */\n      dup4\n      add\n        /* \"#utility.yul\":1721:1771   */\n      mstore\n        /* \"#utility.yul\":1660:1678   */\n      add\n        /* \"contracts/oracle/VRFDirectFunding.sol\":554:597  mapping(uint256 => Request) public requests */\n    tag_30:\n      mload(0x40)\n      dup1\n      swap2\n      sub\n      swap1\n      return\n        /* \"contracts/oracle/VRFDirectFunding.sol\":604:631  uint256[] public requestIds */\n    tag_7:\n      tag_32\n      tag_33\n      calldatasize\n      0x04\n      tag_28\n      jump\t// in\n    tag_33:\n      tag_34\n      jump\t// in\n    tag_32:\n      mload(0x40)\n        /* \"#utility.yul\":1928:1953   */\n      swap1\n      dup2\n      mstore\n        /* \"#utility.yul\":1916:1918   */\n      0x20\n        /* \"#utility.yul\":1901:1919   */\n      add\n        /* \"contracts/oracle/VRFDirectFunding.sol\":604:631  uint256[] public requestIds */\n      tag_30\n        /* \"#utility.yul\":1782:1959   */\n      jump\n        /* \"contracts/oracle/VRFDirectFunding.sol\":2624:2769  function setRequestConfirmations(uint16 _requestConfirmations) onlyOwner external {... */\n    tag_8:\n      tag_18\n      tag_38\n      calldatasize\n      0x04\n      tag_39\n      jump\t// in\n    tag_38:\n      tag_40\n      jump\t// in\n        /* \"@chainlink/contracts/src/v0.8/shared/access/ConfirmedOwnerWithProposal.sol\":1317:1398  function owner() public view override returns (address) {... */\n    tag_9:\n        /* \"@chainlink/contracts/src/v0.8/shared/access/ConfirmedOwnerWithProposal.sol\":1364:1371  address */\n      0x00\n        /* \"@chainlink/contracts/src/v0.8/shared/access/ConfirmedOwnerWithProposal.sol\":1386:1393  s_owner */\n      sload\n        /* \"@chainlink/contracts/src/v0.8/shared/access/ConfirmedOwnerWithProposal.sol\":1317:1398  function owner() public view override returns (address) {... */\n      mload(0x40)\n      sub(shl(0xa0, 0x01), 0x01)\n        /* \"@chainlink/contracts/src/v0.8/shared/access/ConfirmedOwnerWithProposal.sol\":1386:1393  s_owner */\n      swap1\n      swap2\n      and\n        /* \"#utility.yul\":2387:2438   */\n      dup2\n      mstore\n        /* \"#utility.yul\":2375:2377   */\n      0x20\n        /* \"#utility.yul\":2360:2378   */\n      add\n        /* \"@chainlink/contracts/src/v0.8/shared/access/ConfirmedOwnerWithProposal.sol\":1317:1398  function owner() public view override returns (address) {... */\n      tag_30\n        /* \"#utility.yul\":2241:2444   */\n      jump\n        /* \"contracts/oracle/VRFDirectFunding.sol\":1950:2157  function getResult(uint256 _requestId) external view returns(uint256[] memory) {... */\n    tag_10:\n      tag_45\n      tag_46\n      calldatasize\n      0x04\n      tag_28\n      jump\t// in\n    tag_46:\n      tag_47\n      jump\t// in\n    tag_45:\n      mload(0x40)\n      tag_30\n      swap2\n      swap1\n      tag_49\n      jump\t// in\n        /* \"contracts/oracle/VRFDirectFunding.sol\":2378:2507  function setCallbackGasLimit(uint32 _callbackGasLimit) onlyOwner external {... */\n    tag_11:\n      tag_18\n      tag_51\n      calldatasize\n      0x04\n      tag_52\n      jump\t// in\n    tag_51:\n      tag_53\n      jump\t// in\n        /* \"contracts/oracle/VRFDirectFunding.sol\":1424:1942  function requestRandom() external onlyOwner returns(uint256) {... */\n    tag_12:\n      tag_32\n      tag_55\n      jump\t// in\n        /* \"@chainlink/contracts/src/v0.8/shared/access/ConfirmedOwnerWithProposal.sol\":811:909  function transferOwnership(address to) public override onlyOwner {... */\n    tag_13:\n      tag_18\n      tag_58\n      calldatasize\n      0x04\n      tag_59\n      jump\t// in\n    tag_58:\n      tag_60\n      jump\t// in\n        /* \"contracts/oracle/VRFDirectFunding.sol\":2519:2616  function setNumWords(uint32 _numWords) onlyOwner external {... */\n    tag_14:\n      tag_18\n      tag_62\n      calldatasize\n      0x04\n      tag_52\n      jump\t// in\n    tag_62:\n      tag_63\n      jump\t// in\n        /* \"contracts/oracle/VRFDirectFunding.sol\":638:666  uint256 public lastRequestId */\n    tag_15:\n      tag_32\n      sload(0x04)\n      dup2\n      jump\n        /* \"@chainlink/contracts/src/v0.8/vrf/VRFV2WrapperConsumerBase.sol\":3398:3631  function rawFulfillRandomWords(uint256 _requestId, uint256[] memory _randomWords) external {... */\n    tag_21:\n        /* \"@chainlink/contracts/src/v0.8/vrf/VRFV2WrapperConsumerBase.sol\":3503:3513  msg.sender */\n      caller\n      sub(shl(0xa0, 0x01), 0x01)\n        /* \"@chainlink/contracts/src/v0.8/vrf/VRFV2WrapperConsumerBase.sol\":3525:3539  VRF_V2_WRAPPER */\n      immutable(\"0xb54132232922229e38cc95c863488521e95e5e7a61a99a0c1f7114e9af332ed3\")\n        /* \"@chainlink/contracts/src/v0.8/vrf/VRFV2WrapperConsumerBase.sol\":3503:3540  msg.sender == address(VRF_V2_WRAPPER) */\n      and\n      eq\n        /* \"@chainlink/contracts/src/v0.8/vrf/VRFV2WrapperConsumerBase.sol\":3495:3576  require(msg.sender == address(VRF_V2_WRAPPER), \"only VRF V2 wrapper can fulfill\") */\n      tag_68\n      jumpi\n      mload(0x40)\n      shl(0xe5, 0x461bcd)\n      dup2\n      mstore\n        /* \"#utility.yul\":3933:3935   */\n      0x20\n        /* \"@chainlink/contracts/src/v0.8/vrf/VRFV2WrapperConsumerBase.sol\":3495:3576  require(msg.sender == address(VRF_V2_WRAPPER), \"only VRF V2 wrapper can fulfill\") */\n      0x04\n      dup3\n      add\n        /* \"#utility.yul\":3915:3936   */\n      mstore\n        /* \"#utility.yul\":3972:3974   */\n      0x1f\n        /* \"#utility.yul\":3952:3970   */\n      0x24\n      dup3\n      add\n        /* \"#utility.yul\":3945:3975   */\n      mstore\n        /* \"#utility.yul\":4011:4044   */\n      0x6f6e6c792056524620563220777261707065722063616e2066756c66696c6c00\n        /* \"#utility.yul\":3991:4009   */\n      0x44\n      dup3\n      add\n        /* \"#utility.yul\":3984:4045   */\n      mstore\n        /* \"#utility.yul\":4062:4080   */\n      0x64\n      add\n        /* \"@chainlink/contracts/src/v0.8/vrf/VRFV2WrapperConsumerBase.sol\":3495:3576  require(msg.sender == address(VRF_V2_WRAPPER), \"only VRF V2 wrapper can fulfill\") */\n    tag_69:\n      mload(0x40)\n      dup1\n      swap2\n      sub\n      swap1\n      revert\n    tag_68:\n        /* \"@chainlink/contracts/src/v0.8/vrf/VRFV2WrapperConsumerBase.sol\":3582:3626  fulfillRandomWords(_requestId, _randomWords) */\n      tag_71\n        /* \"@chainlink/contracts/src/v0.8/vrf/VRFV2WrapperConsumerBase.sol\":3601:3611  _requestId */\n      dup3\n        /* \"@chainlink/contracts/src/v0.8/vrf/VRFV2WrapperConsumerBase.sol\":3613:3625  _randomWords */\n      dup3\n        /* \"@chainlink/contracts/src/v0.8/vrf/VRFV2WrapperConsumerBase.sol\":3582:3600  fulfillRandomWords */\n      tag_72\n        /* \"@chainlink/contracts/src/v0.8/vrf/VRFV2WrapperConsumerBase.sol\":3582:3626  fulfillRandomWords(_requestId, _randomWords) */\n      jump\t// in\n    tag_71:\n        /* \"@chainlink/contracts/src/v0.8/vrf/VRFV2WrapperConsumerBase.sol\":3398:3631  function rawFulfillRandomWords(uint256 _requestId, uint256[] memory _randomWords) external {... */\n      pop\n      pop\n      jump\t// out\n        /* \"contracts/oracle/VRFDirectFunding.sol\":2165:2370  function withdraw() external onlyOwner() {... */\n    tag_23:\n        /* \"@chainlink/contracts/src/v0.8/shared/access/ConfirmedOwnerWithProposal.sol\":1941:1961  _validateOwnership() */\n      tag_74\n        /* \"@chainlink/contracts/src/v0.8/shared/access/ConfirmedOwnerWithProposal.sol\":1941:1959  _validateOwnership */\n      tag_75\n        /* \"@chainlink/contracts/src/v0.8/shared/access/ConfirmedOwnerWithProposal.sol\":1941:1961  _validateOwnership() */\n      jump\t// in\n    tag_74:\n        /* \"contracts/oracle/VRFDirectFunding.sol\":2312:2341  link.balanceOf(address(this)) */\n      mload(0x40)\n      shl(0xe0, 0x70a08231)\n      dup2\n      mstore\n        /* \"contracts/oracle/VRFDirectFunding.sol\":2335:2339  this */\n      address\n        /* \"contracts/oracle/VRFDirectFunding.sol\":2312:2341  link.balanceOf(address(this)) */\n      0x04\n      dup3\n      add\n        /* \"#utility.yul\":2387:2438   */\n      mstore\n        /* \"contracts/oracle/VRFDirectFunding.sol\":2262:2266  LINK */\n      immutable(\"0x1ec028d8f61438d0c8fe7f648326da239a9b9b5acd20368337c73966e8c44e82\")\n      swap1\n      sub(shl(0xa0, 0x01), 0x01)\n        /* \"contracts/oracle/VRFDirectFunding.sol\":2286:2299  link.transfer */\n      dup3\n      and\n      swap1\n      0xa9059cbb\n      swap1\n        /* \"contracts/oracle/VRFDirectFunding.sol\":2300:2310  msg.sender */\n      caller\n      swap1\n        /* \"contracts/oracle/VRFDirectFunding.sol\":2286:2299  link.transfer */\n      dup4\n      swap1\n        /* \"contracts/oracle/VRFDirectFunding.sol\":2312:2326  link.balanceOf */\n      0x70a08231\n      swap1\n        /* \"#utility.yul\":2360:2378   */\n      0x24\n      add\n        /* \"contracts/oracle/VRFDirectFunding.sol\":2312:2341  link.balanceOf(address(this)) */\n      0x20\n      mload(0x40)\n      dup1\n      dup4\n      sub\n      dup2\n      dup7\n      gas\n      staticcall\n      iszero\n      dup1\n      iszero\n      tag_79\n      jumpi\n      returndatasize\n      0x00\n      dup1\n      returndatacopy\n      revert(0x00, returndatasize)\n    tag_79:\n      pop\n      pop\n      pop\n      pop\n      mload(0x40)\n      returndatasize\n      not(0x1f)\n      0x1f\n      dup3\n      add\n      and\n      dup3\n      add\n      dup1\n      0x40\n      mstore\n      pop\n      dup2\n      add\n      swap1\n      tag_80\n      swap2\n      swap1\n      tag_81\n      jump\t// in\n    tag_80:\n        /* \"contracts/oracle/VRFDirectFunding.sol\":2286:2342  link.transfer(msg.sender, link.balanceOf(address(this))) */\n      mload(0x40)\n      not(sub(shl(0xe0, 0x01), 0x01))\n      0xe0\n      dup6\n      swap1\n      shl\n      and\n      dup2\n      mstore\n      sub(shl(0xa0, 0x01), 0x01)\n        /* \"#utility.yul\":4472:4504   */\n      swap1\n      swap3\n      and\n        /* \"contracts/oracle/VRFDirectFunding.sol\":2286:2342  link.transfer(msg.sender, link.balanceOf(address(this))) */\n      0x04\n      dup4\n      add\n        /* \"#utility.yul\":4454:4505   */\n      mstore\n        /* \"#utility.yul\":4521:4539   */\n      0x24\n      dup3\n      add\n        /* \"#utility.yul\":4514:4548   */\n      mstore\n        /* \"#utility.yul\":4427:4445   */\n      0x44\n      add\n        /* \"contracts/oracle/VRFDirectFunding.sol\":2286:2342  link.transfer(msg.sender, link.balanceOf(address(this))) */\n      0x20\n      mload(0x40)\n      dup1\n      dup4\n      sub\n      dup2\n      0x00\n      dup8\n      gas\n      call\n      iszero\n      dup1\n      iszero\n      tag_85\n      jumpi\n      returndatasize\n      0x00\n      dup1\n      returndatacopy\n      revert(0x00, returndatasize)\n    tag_85:\n      pop\n      pop\n      pop\n      pop\n      mload(0x40)\n      returndatasize\n      not(0x1f)\n      0x1f\n      dup3\n      add\n      and\n      dup3\n      add\n      dup1\n      0x40\n      mstore\n      pop\n      dup2\n      add\n      swap1\n      tag_86\n      swap2\n      swap1\n      tag_87\n      jump\t// in\n    tag_86:\n        /* \"contracts/oracle/VRFDirectFunding.sol\":2278:2362  require(link.transfer(msg.sender, link.balanceOf(address(this))), \"unable transfer\") */\n      tag_88\n      jumpi\n      mload(0x40)\n      shl(0xe5, 0x461bcd)\n      dup2\n      mstore\n        /* \"#utility.yul\":5043:5045   */\n      0x20\n        /* \"contracts/oracle/VRFDirectFunding.sol\":2278:2362  require(link.transfer(msg.sender, link.balanceOf(address(this))), \"unable transfer\") */\n      0x04\n      dup3\n      add\n        /* \"#utility.yul\":5025:5046   */\n      mstore\n        /* \"#utility.yul\":5082:5084   */\n      0x0f\n        /* \"#utility.yul\":5062:5080   */\n      0x24\n      dup3\n      add\n        /* \"#utility.yul\":5055:5085   */\n      mstore\n      shl(0x89, 0x3ab730b13632903a3930b739b332b9)\n        /* \"#utility.yul\":5101:5119   */\n      0x44\n      dup3\n      add\n        /* \"#utility.yul\":5094:5139   */\n      mstore\n        /* \"#utility.yul\":5156:5174   */\n      0x64\n      add\n        /* \"contracts/oracle/VRFDirectFunding.sol\":2278:2362  require(link.transfer(msg.sender, link.balanceOf(address(this))), \"unable transfer\") */\n      tag_69\n        /* \"#utility.yul\":4841:5180   */\n      jump\n        /* \"contracts/oracle/VRFDirectFunding.sol\":2278:2362  require(link.transfer(msg.sender, link.balanceOf(address(this))), \"unable transfer\") */\n    tag_88:\n        /* \"contracts/oracle/VRFDirectFunding.sol\":2206:2370  {... */\n      pop\n        /* \"contracts/oracle/VRFDirectFunding.sol\":2165:2370  function withdraw() external onlyOwner() {... */\n      jump\t// out\n        /* \"@chainlink/contracts/src/v0.8/shared/access/ConfirmedOwnerWithProposal.sol\":1001:1266  function acceptOwnership() external override {... */\n    tag_25:\n        /* \"@chainlink/contracts/src/v0.8/shared/access/ConfirmedOwnerWithProposal.sol\":1074:1088  s_pendingOwner */\n      and(sub(shl(0xa0, 0x01), 0x01), sload(0x01))\n        /* \"@chainlink/contracts/src/v0.8/shared/access/ConfirmedOwnerWithProposal.sol\":1060:1070  msg.sender */\n      caller\n        /* \"@chainlink/contracts/src/v0.8/shared/access/ConfirmedOwnerWithProposal.sol\":1060:1088  msg.sender == s_pendingOwner */\n      eq\n        /* \"@chainlink/contracts/src/v0.8/shared/access/ConfirmedOwnerWithProposal.sol\":1052:1115  require(msg.sender == s_pendingOwner, \"Must be proposed owner\") */\n      tag_92\n      jumpi\n      mload(0x40)\n      shl(0xe5, 0x461bcd)\n      dup2\n      mstore\n        /* \"#utility.yul\":5387:5389   */\n      0x20\n        /* \"@chainlink/contracts/src/v0.8/shared/access/ConfirmedOwnerWithProposal.sol\":1052:1115  require(msg.sender == s_pendingOwner, \"Must be proposed owner\") */\n      0x04\n      dup3\n      add\n        /* \"#utility.yul\":5369:5390   */\n      mstore\n        /* \"#utility.yul\":5426:5428   */\n      0x16\n        /* \"#utility.yul\":5406:5424   */\n      0x24\n      dup3\n      add\n        /* \"#utility.yul\":5399:5429   */\n      mstore\n      shl(0x51, 0x26bab9ba10313290383937b837b9b2b21037bbb732b9)\n        /* \"#utility.yul\":5445:5463   */\n      0x44\n      dup3\n      add\n        /* \"#utility.yul\":5438:5490   */\n      mstore\n        /* \"#utility.yul\":5507:5525   */\n      0x64\n      add\n        /* \"@chainlink/contracts/src/v0.8/shared/access/ConfirmedOwnerWithProposal.sol\":1052:1115  require(msg.sender == s_pendingOwner, \"Must be proposed owner\") */\n      tag_69\n        /* \"#utility.yul\":5185:5531   */\n      jump\n        /* \"@chainlink/contracts/src/v0.8/shared/access/ConfirmedOwnerWithProposal.sol\":1052:1115  require(msg.sender == s_pendingOwner, \"Must be proposed owner\") */\n    tag_92:\n        /* \"@chainlink/contracts/src/v0.8/shared/access/ConfirmedOwnerWithProposal.sol\":1122:1138  address oldOwner */\n      0x00\n        /* \"@chainlink/contracts/src/v0.8/shared/access/ConfirmedOwnerWithProposal.sol\":1141:1148  s_owner */\n      dup1\n      sload\n        /* \"@chainlink/contracts/src/v0.8/shared/access/ConfirmedOwnerWithProposal.sol\":1164:1174  msg.sender */\n      caller\n      not(sub(shl(0xa0, 0x01), 0x01))\n        /* \"@chainlink/contracts/src/v0.8/shared/access/ConfirmedOwnerWithProposal.sol\":1154:1174  s_owner = msg.sender */\n      dup1\n      dup4\n      and\n      dup3\n      or\n      dup5\n      sstore\n      0x01\n        /* \"@chainlink/contracts/src/v0.8/shared/access/ConfirmedOwnerWithProposal.sol\":1180:1207  s_pendingOwner = address(0) */\n      dup1\n      sload\n      swap1\n      swap2\n      and\n      swap1\n      sstore\n        /* \"@chainlink/contracts/src/v0.8/shared/access/ConfirmedOwnerWithProposal.sol\":1219:1261  OwnershipTransferred(oldOwner, msg.sender) */\n      mload(0x40)\n      sub(shl(0xa0, 0x01), 0x01)\n        /* \"@chainlink/contracts/src/v0.8/shared/access/ConfirmedOwnerWithProposal.sol\":1141:1148  s_owner */\n      swap1\n      swap3\n      and\n      swap3\n        /* \"@chainlink/contracts/src/v0.8/shared/access/ConfirmedOwnerWithProposal.sol\":1164:1174  msg.sender */\n      swap1\n      swap2\n        /* \"@chainlink/contracts/src/v0.8/shared/access/ConfirmedOwnerWithProposal.sol\":1141:1148  s_owner */\n      dup4\n      swap2\n        /* \"@chainlink/contracts/src/v0.8/shared/access/ConfirmedOwnerWithProposal.sol\":1219:1261  OwnershipTransferred(oldOwner, msg.sender) */\n      0x8be0079c531659141344cd1fd0a4f28419497f9722a3daafe3b4186f6b6457e0\n      swap2\n      log3\n        /* \"@chainlink/contracts/src/v0.8/shared/access/ConfirmedOwnerWithProposal.sol\":1046:1266  {... */\n      pop\n        /* \"@chainlink/contracts/src/v0.8/shared/access/ConfirmedOwnerWithProposal.sol\":1001:1266  function acceptOwnership() external override {... */\n      jump\t// out\n        /* \"contracts/oracle/VRFDirectFunding.sol\":604:631  uint256[] public requestIds */\n    tag_34:\n      0x03\n      dup2\n      dup2\n      sload\n      dup2\n      lt\n      tag_95\n      jumpi\n      0x00\n      dup1\n      revert\n    tag_95:\n      0x00\n      swap2\n      dup3\n      mstore\n      0x20\n      swap1\n      swap2\n      keccak256\n      add\n      sload\n      swap1\n      pop\n      dup2\n      jump\t// out\n        /* \"contracts/oracle/VRFDirectFunding.sol\":2624:2769  function setRequestConfirmations(uint16 _requestConfirmations) onlyOwner external {... */\n    tag_40:\n        /* \"@chainlink/contracts/src/v0.8/shared/access/ConfirmedOwnerWithProposal.sol\":1941:1961  _validateOwnership() */\n      tag_98\n        /* \"@chainlink/contracts/src/v0.8/shared/access/ConfirmedOwnerWithProposal.sol\":1941:1959  _validateOwnership */\n      tag_75\n        /* \"@chainlink/contracts/src/v0.8/shared/access/ConfirmedOwnerWithProposal.sol\":1941:1961  _validateOwnership() */\n      jump\t// in\n    tag_98:\n        /* \"contracts/oracle/VRFDirectFunding.sol\":2717:2737  requestConfirmations */\n      0x01\n        /* \"contracts/oracle/VRFDirectFunding.sol\":2717:2761  requestConfirmations = _requestConfirmations */\n      dup1\n      sload\n      0xffff\n      swap1\n      swap3\n      and\n      shl(0xe0, 0x01)\n      mul\n      not(shl(0xe0, 0xffff))\n      swap1\n      swap3\n      and\n      swap2\n      swap1\n      swap2\n      or\n      swap1\n      sstore\n        /* \"contracts/oracle/VRFDirectFunding.sol\":2624:2769  function setRequestConfirmations(uint16 _requestConfirmations) onlyOwner external {... */\n      jump\t// out\n        /* \"contracts/oracle/VRFDirectFunding.sol\":1950:2157  function getResult(uint256 _requestId) external view returns(uint256[] memory) {... */\n    tag_47:\n        /* \"contracts/oracle/VRFDirectFunding.sol\":2076:2077  0 */\n      0x00\n        /* \"contracts/oracle/VRFDirectFunding.sol\":2048:2068  requests[_requestId] */\n      dup2\n      dup2\n      mstore\n        /* \"contracts/oracle/VRFDirectFunding.sol\":2048:2056  requests */\n      0x02\n        /* \"contracts/oracle/VRFDirectFunding.sol\":2048:2068  requests[_requestId] */\n      0x20\n      mstore\n      0x40\n      swap1\n      keccak256\n        /* \"contracts/oracle/VRFDirectFunding.sol\":2048:2073  requests[_requestId].paid */\n      sload\n        /* \"contracts/oracle/VRFDirectFunding.sol\":2011:2027  uint256[] memory */\n      0x60\n      swap1\n        /* \"contracts/oracle/VRFDirectFunding.sol\":2040:2099  require(requests[_requestId].paid > 0, \"request not found\") */\n      tag_102\n      jumpi\n      mload(0x40)\n      shl(0xe5, 0x461bcd)\n      dup2\n      mstore\n        /* \"#utility.yul\":5738:5740   */\n      0x20\n        /* \"contracts/oracle/VRFDirectFunding.sol\":2040:2099  require(requests[_requestId].paid > 0, \"request not found\") */\n      0x04\n      dup3\n      add\n        /* \"#utility.yul\":5720:5741   */\n      mstore\n        /* \"#utility.yul\":5777:5779   */\n      0x11\n        /* \"#utility.yul\":5757:5775   */\n      0x24\n      dup3\n      add\n        /* \"#utility.yul\":5750:5780   */\n      mstore\n      shl(0x7a, 0x1c995c5d595cdd081b9bdd08199bdd5b99)\n        /* \"#utility.yul\":5796:5814   */\n      0x44\n      dup3\n      add\n        /* \"#utility.yul\":5789:5836   */\n      mstore\n        /* \"#utility.yul\":5853:5871   */\n      0x64\n      add\n        /* \"contracts/oracle/VRFDirectFunding.sol\":2040:2099  require(requests[_requestId].paid > 0, \"request not found\") */\n      tag_69\n        /* \"#utility.yul\":5536:5877   */\n      jump\n        /* \"contracts/oracle/VRFDirectFunding.sol\":2040:2099  require(requests[_requestId].paid > 0, \"request not found\") */\n    tag_102:\n        /* \"contracts/oracle/VRFDirectFunding.sol\":2117:2137  requests[_requestId] */\n      0x00\n      dup3\n      dup2\n      mstore\n        /* \"contracts/oracle/VRFDirectFunding.sol\":2117:2125  requests */\n      0x02\n        /* \"contracts/oracle/VRFDirectFunding.sol\":2117:2137  requests[_requestId] */\n      0x20\n      dup2\n      dup2\n      mstore\n      0x40\n      swap3\n      dup4\n      swap1\n      keccak256\n        /* \"contracts/oracle/VRFDirectFunding.sol\":2117:2149  requests[_requestId].randomWords */\n      swap1\n      swap2\n      add\n        /* \"contracts/oracle/VRFDirectFunding.sol\":2110:2149  return requests[_requestId].randomWords */\n      dup1\n      sload\n      dup4\n      mload\n      dup2\n      dup5\n      mul\n      dup2\n      add\n      dup5\n      add\n      swap1\n      swap5\n      mstore\n      dup1\n      dup5\n      mstore\n        /* \"contracts/oracle/VRFDirectFunding.sol\":2117:2149  requests[_requestId].randomWords */\n      swap1\n      swap2\n        /* \"contracts/oracle/VRFDirectFunding.sol\":2110:2149  return requests[_requestId].randomWords */\n      dup4\n      add\n        /* \"contracts/oracle/VRFDirectFunding.sol\":2117:2149  requests[_requestId].randomWords */\n      dup3\n        /* \"contracts/oracle/VRFDirectFunding.sol\":2110:2149  return requests[_requestId].randomWords */\n      dup3\n      dup1\n      iszero\n      tag_105\n      jumpi\n      0x20\n      mul\n      dup3\n      add\n      swap2\n      swap1\n      0x00\n      mstore\n      keccak256(0x00, 0x20)\n      swap1\n    tag_106:\n      dup2\n      sload\n      dup2\n      mstore\n      0x20\n      add\n      swap1\n      0x01\n      add\n      swap1\n      dup1\n      dup4\n      gt\n      tag_106\n      jumpi\n    tag_105:\n      pop\n      pop\n      pop\n      pop\n      pop\n      swap1\n      pop\n        /* \"contracts/oracle/VRFDirectFunding.sol\":1950:2157  function getResult(uint256 _requestId) external view returns(uint256[] memory) {... */\n      swap2\n      swap1\n      pop\n      jump\t// out\n        /* \"contracts/oracle/VRFDirectFunding.sol\":2378:2507  function setCallbackGasLimit(uint32 _callbackGasLimit) onlyOwner external {... */\n    tag_53:\n        /* \"@chainlink/contracts/src/v0.8/shared/access/ConfirmedOwnerWithProposal.sol\":1941:1961  _validateOwnership() */\n      tag_108\n        /* \"@chainlink/contracts/src/v0.8/shared/access/ConfirmedOwnerWithProposal.sol\":1941:1959  _validateOwnership */\n      tag_75\n        /* \"@chainlink/contracts/src/v0.8/shared/access/ConfirmedOwnerWithProposal.sol\":1941:1961  _validateOwnership() */\n      jump\t// in\n    tag_108:\n        /* \"contracts/oracle/VRFDirectFunding.sol\":2463:2479  callbackGasLimit */\n      0x01\n        /* \"contracts/oracle/VRFDirectFunding.sol\":2463:2499  callbackGasLimit = _callbackGasLimit */\n      dup1\n      sload\n      0xffffffff\n      swap1\n      swap3\n      and\n      shl(0xa0, 0x01)\n      mul\n      not(shl(0xa0, 0xffffffff))\n      swap1\n      swap3\n      and\n      swap2\n      swap1\n      swap2\n      or\n      swap1\n      sstore\n        /* \"contracts/oracle/VRFDirectFunding.sol\":2378:2507  function setCallbackGasLimit(uint32 _callbackGasLimit) onlyOwner external {... */\n      jump\t// out\n        /* \"contracts/oracle/VRFDirectFunding.sol\":1424:1942  function requestRandom() external onlyOwner returns(uint256) {... */\n    tag_55:\n        /* \"contracts/oracle/VRFDirectFunding.sol\":1476:1483  uint256 */\n      0x00\n        /* \"@chainlink/contracts/src/v0.8/shared/access/ConfirmedOwnerWithProposal.sol\":1941:1961  _validateOwnership() */\n      tag_111\n        /* \"@chainlink/contracts/src/v0.8/shared/access/ConfirmedOwnerWithProposal.sol\":1941:1959  _validateOwnership */\n      tag_75\n        /* \"@chainlink/contracts/src/v0.8/shared/access/ConfirmedOwnerWithProposal.sol\":1941:1961  _validateOwnership() */\n      jump\t// in\n    tag_111:\n        /* \"contracts/oracle/VRFDirectFunding.sol\":1534:1550  callbackGasLimit */\n      sload(0x01)\n        /* \"contracts/oracle/VRFDirectFunding.sol\":1496:1513  uint256 requestId */\n      0x00\n      swap1\n        /* \"contracts/oracle/VRFDirectFunding.sol\":1516:1583  requestRandomness(callbackGasLimit, requestConfirmations, numWords) */\n      tag_113\n      swap1\n        /* \"contracts/oracle/VRFDirectFunding.sol\":1534:1550  callbackGasLimit */\n      0xffffffff\n      shl(0xa0, 0x01)\n      dup3\n      div\n      dup2\n      and\n      swap2\n        /* \"contracts/oracle/VRFDirectFunding.sol\":1552:1572  requestConfirmations */\n      0xffff\n      shl(0xe0, 0x01)\n      dup3\n      div\n      and\n      swap2\n      shl(0xc0, 0x01)\n        /* \"contracts/oracle/VRFDirectFunding.sol\":1574:1582  numWords */\n      swap1\n      swap2\n      div\n      and\n        /* \"contracts/oracle/VRFDirectFunding.sol\":1516:1533  requestRandomness */\n      tag_114\n        /* \"contracts/oracle/VRFDirectFunding.sol\":1516:1583  requestRandomness(callbackGasLimit, requestConfirmations, numWords) */\n      jump\t// in\n    tag_113:\n        /* \"contracts/oracle/VRFDirectFunding.sol\":1616:1786  Request({... */\n      0x40\n      dup1\n      mload\n      0x60\n      dup2\n      add\n      swap2\n      dup3\n      swap1\n      mstore\n        /* \"contracts/oracle/VRFDirectFunding.sol\":1682:1698  callbackGasLimit */\n      sload(0x01)\n      shl(0xe2, 0x10c1b4d5)\n        /* \"contracts/oracle/VRFDirectFunding.sol\":1645:1699  VRF_V2_WRAPPER.calculateRequestPrice(callbackGasLimit) */\n      swap1\n      swap3\n      mstore\n      shl(0xa0, 0x01)\n        /* \"contracts/oracle/VRFDirectFunding.sol\":1682:1698  callbackGasLimit */\n      swap1\n      swap2\n      div\n      0xffffffff\n      and\n        /* \"contracts/oracle/VRFDirectFunding.sol\":1645:1699  VRF_V2_WRAPPER.calculateRequestPrice(callbackGasLimit) */\n      0x64\n      dup3\n      add\n        /* \"#utility.yul\":6026:6068   */\n      mstore\n        /* \"contracts/oracle/VRFDirectFunding.sol\":1496:1583  uint256 requestId = requestRandomness(callbackGasLimit, requestConfirmations, numWords) */\n      swap1\n      swap2\n      pop\n        /* \"contracts/oracle/VRFDirectFunding.sol\":1616:1786  Request({... */\n      dup1\n        /* \"contracts/oracle/VRFDirectFunding.sol\":1645:1659  VRF_V2_WRAPPER */\n      immutable(\"0xb54132232922229e38cc95c863488521e95e5e7a61a99a0c1f7114e9af332ed3\")\n      sub(shl(0xa0, 0x01), 0x01)\n        /* \"contracts/oracle/VRFDirectFunding.sol\":1645:1681  VRF_V2_WRAPPER.calculateRequestPrice */\n      and\n      0x4306d354\n        /* \"#utility.yul\":5999:6017   */\n      0x84\n      dup4\n      add\n        /* \"contracts/oracle/VRFDirectFunding.sol\":1645:1699  VRF_V2_WRAPPER.calculateRequestPrice(callbackGasLimit) */\n      0x20\n      mload(0x40)\n      dup1\n      dup4\n      sub\n      dup2\n      dup7\n      gas\n      staticcall\n      iszero\n      dup1\n      iszero\n      tag_118\n      jumpi\n      returndatasize\n      0x00\n      dup1\n      returndatacopy\n      revert(0x00, returndatasize)\n    tag_118:\n      pop\n      pop\n      pop\n      pop\n      mload(0x40)\n      returndatasize\n      not(0x1f)\n      0x1f\n      dup3\n      add\n      and\n      dup3\n      add\n      dup1\n      0x40\n      mstore\n      pop\n      dup2\n      add\n      swap1\n      tag_119\n      swap2\n      swap1\n      tag_81\n      jump\t// in\n    tag_119:\n        /* \"contracts/oracle/VRFDirectFunding.sol\":1616:1786  Request({... */\n      dup2\n      mstore\n        /* \"contracts/oracle/VRFDirectFunding.sol\":1725:1730  false */\n      0x00\n        /* \"contracts/oracle/VRFDirectFunding.sol\":1616:1786  Request({... */\n      0x20\n      dup1\n      dup4\n      add\n      dup3\n      swap1\n      mstore\n      0x40\n        /* \"contracts/oracle/VRFDirectFunding.sol\":1758:1774  new uint256[](0) */\n      dup1\n      mload\n      dup4\n      dup2\n      mstore\n      dup1\n      dup4\n      add\n      dup3\n      mstore\n        /* \"contracts/oracle/VRFDirectFunding.sol\":1616:1786  Request({... */\n      swap4\n      dup2\n      add\n      swap4\n      swap1\n      swap4\n      mstore\n        /* \"contracts/oracle/VRFDirectFunding.sol\":1594:1613  requests[requestId] */\n      dup5\n      dup3\n      mstore\n        /* \"contracts/oracle/VRFDirectFunding.sol\":1594:1602  requests */\n      0x02\n        /* \"contracts/oracle/VRFDirectFunding.sol\":1594:1613  requests[requestId] */\n      dup1\n      dup3\n      mstore\n      swap2\n      dup4\n      swap1\n      keccak256\n        /* \"contracts/oracle/VRFDirectFunding.sol\":1594:1786  requests[requestId] = Request({... */\n      dup5\n      mload\n      dup2\n      sstore\n      dup5\n      dup3\n      add\n      mload\n      0x01\n      dup3\n      add\n      dup1\n      sload\n      not(0xff)\n      and\n      swap2\n      iszero\n      iszero\n      swap2\n      swap1\n      swap2\n      or\n      swap1\n      sstore\n      swap3\n      dup5\n      add\n      mload\n      dup1\n      mload\n      tag_124\n      swap4\n      dup6\n      add\n      swap3\n      swap2\n      swap1\n      swap2\n      add\n      swap1\n      tag_125\n      jump\t// in\n    tag_124:\n      pop\n      pop\n        /* \"contracts/oracle/VRFDirectFunding.sol\":1797:1807  requestIds */\n      0x03\n        /* \"contracts/oracle/VRFDirectFunding.sol\":1797:1823  requestIds.push(requestId) */\n      dup1\n      sload\n      0x01\n      dup1\n      dup3\n      add\n      dup4\n      sstore\n      0x00\n      swap3\n      swap1\n      swap3\n      mstore\n      0xc2575a0e9e593c00f959f8c92f12db2869c3395a3b0502d05e2516446f71f85b\n      add\n      dup4\n      swap1\n      sstore\n        /* \"contracts/oracle/VRFDirectFunding.sol\":1834:1847  lastRequestId */\n      0x04\n        /* \"contracts/oracle/VRFDirectFunding.sol\":1834:1859  lastRequestId = requestId */\n      dup4\n      swap1\n      sstore\n        /* \"contracts/oracle/VRFDirectFunding.sol\":1898:1906  numWords */\n      sload\n        /* \"contracts/oracle/VRFDirectFunding.sol\":1875:1907  RequestSent(requestId, numWords) */\n      0x40\n      dup1\n      mload\n        /* \"#utility.yul\":6251:6276   */\n      dup5\n      dup2\n      mstore\n      shl(0xc0, 0x01)\n        /* \"contracts/oracle/VRFDirectFunding.sol\":1898:1906  numWords */\n      swap1\n      swap3\n      div\n      0xffffffff\n      and\n        /* \"#utility.yul\":6307:6309   */\n      0x20\n        /* \"#utility.yul\":6292:6310   */\n      dup4\n      add\n        /* \"#utility.yul\":6285:6336   */\n      mstore\n        /* \"contracts/oracle/VRFDirectFunding.sol\":1875:1907  RequestSent(requestId, numWords) */\n      0xcc58b13ad3eab50626c6a6300b1d139cd6ebb1688a7cced9461c2f7e762665ee\n      swap3\n      pop\n        /* \"#utility.yul\":6224:6242   */\n      add\n        /* \"contracts/oracle/VRFDirectFunding.sol\":1875:1907  RequestSent(requestId, numWords) */\n      mload(0x40)\n      dup1\n      swap2\n      sub\n      swap1\n      log1\n        /* \"contracts/oracle/VRFDirectFunding.sol\":1925:1934  requestId */\n      swap1\n      pop\n        /* \"contracts/oracle/VRFDirectFunding.sol\":1424:1942  function requestRandom() external onlyOwner returns(uint256) {... */\n      swap1\n      jump\t// out\n        /* \"@chainlink/contracts/src/v0.8/shared/access/ConfirmedOwnerWithProposal.sol\":811:909  function transferOwnership(address to) public override onlyOwner {... */\n    tag_60:\n        /* \"@chainlink/contracts/src/v0.8/shared/access/ConfirmedOwnerWithProposal.sol\":1941:1961  _validateOwnership() */\n      tag_130\n        /* \"@chainlink/contracts/src/v0.8/shared/access/ConfirmedOwnerWithProposal.sol\":1941:1959  _validateOwnership */\n      tag_75\n        /* \"@chainlink/contracts/src/v0.8/shared/access/ConfirmedOwnerWithProposal.sol\":1941:1961  _validateOwnership() */\n      jump\t// in\n    tag_130:\n        /* \"@chainlink/contracts/src/v0.8/shared/access/ConfirmedOwnerWithProposal.sol\":882:904  _transferOwnership(to) */\n      tag_88\n        /* \"@chainlink/contracts/src/v0.8/shared/access/ConfirmedOwnerWithProposal.sol\":901:903  to */\n      dup2\n        /* \"@chainlink/contracts/src/v0.8/shared/access/ConfirmedOwnerWithProposal.sol\":882:900  _transferOwnership */\n      tag_133\n        /* \"@chainlink/contracts/src/v0.8/shared/access/ConfirmedOwnerWithProposal.sol\":882:904  _transferOwnership(to) */\n      jump\t// in\n        /* \"contracts/oracle/VRFDirectFunding.sol\":2519:2616  function setNumWords(uint32 _numWords) onlyOwner external {... */\n    tag_63:\n        /* \"@chainlink/contracts/src/v0.8/shared/access/ConfirmedOwnerWithProposal.sol\":1941:1961  _validateOwnership() */\n      tag_135\n        /* \"@chainlink/contracts/src/v0.8/shared/access/ConfirmedOwnerWithProposal.sol\":1941:1959  _validateOwnership */\n      tag_75\n        /* \"@chainlink/contracts/src/v0.8/shared/access/ConfirmedOwnerWithProposal.sol\":1941:1961  _validateOwnership() */\n      jump\t// in\n    tag_135:\n        /* \"contracts/oracle/VRFDirectFunding.sol\":2588:2596  numWords */\n      0x01\n        /* \"contracts/oracle/VRFDirectFunding.sol\":2588:2608  numWords = _numWords */\n      dup1\n      sload\n      0xffffffff\n      swap1\n      swap3\n      and\n      shl(0xc0, 0x01)\n      mul\n      not(shl(0xc0, 0xffffffff))\n      swap1\n      swap3\n      and\n      swap2\n      swap1\n      swap2\n      or\n      swap1\n      sstore\n        /* \"contracts/oracle/VRFDirectFunding.sol\":2519:2616  function setNumWords(uint32 _numWords) onlyOwner external {... */\n      jump\t// out\n        /* \"contracts/oracle/VRFDirectFunding.sol\":968:1416  function fulfillRandomWords(uint256 _requestId, uint256[] memory _randomWords) internal override {... */\n    tag_72:\n        /* \"contracts/oracle/VRFDirectFunding.sol\":1112:1113  0 */\n      0x00\n        /* \"contracts/oracle/VRFDirectFunding.sol\":1084:1104  requests[_requestId] */\n      dup3\n      dup2\n      mstore\n        /* \"contracts/oracle/VRFDirectFunding.sol\":1084:1092  requests */\n      0x02\n        /* \"contracts/oracle/VRFDirectFunding.sol\":1084:1104  requests[_requestId] */\n      0x20\n      mstore\n      0x40\n      swap1\n      keccak256\n        /* \"contracts/oracle/VRFDirectFunding.sol\":1084:1109  requests[_requestId].paid */\n      sload\n        /* \"contracts/oracle/VRFDirectFunding.sol\":1076:1135  require(requests[_requestId].paid > 0, \"request not found\") */\n      tag_138\n      jumpi\n      mload(0x40)\n      shl(0xe5, 0x461bcd)\n      dup2\n      mstore\n        /* \"#utility.yul\":5738:5740   */\n      0x20\n        /* \"contracts/oracle/VRFDirectFunding.sol\":1076:1135  require(requests[_requestId].paid > 0, \"request not found\") */\n      0x04\n      dup3\n      add\n        /* \"#utility.yul\":5720:5741   */\n      mstore\n        /* \"#utility.yul\":5777:5779   */\n      0x11\n        /* \"#utility.yul\":5757:5775   */\n      0x24\n      dup3\n      add\n        /* \"#utility.yul\":5750:5780   */\n      mstore\n      shl(0x7a, 0x1c995c5d595cdd081b9bdd08199bdd5b99)\n        /* \"#utility.yul\":5796:5814   */\n      0x44\n      dup3\n      add\n        /* \"#utility.yul\":5789:5836   */\n      mstore\n        /* \"#utility.yul\":5853:5871   */\n      0x64\n      add\n        /* \"contracts/oracle/VRFDirectFunding.sol\":1076:1135  require(requests[_requestId].paid > 0, \"request not found\") */\n      tag_69\n        /* \"#utility.yul\":5536:5877   */\n      jump\n        /* \"contracts/oracle/VRFDirectFunding.sol\":1076:1135  require(requests[_requestId].paid > 0, \"request not found\") */\n    tag_138:\n        /* \"contracts/oracle/VRFDirectFunding.sol\":1146:1166  requests[_requestId] */\n      0x00\n      dup3\n      dup2\n      mstore\n        /* \"contracts/oracle/VRFDirectFunding.sol\":1146:1154  requests */\n      0x02\n        /* \"contracts/oracle/VRFDirectFunding.sol\":1146:1166  requests[_requestId] */\n      0x20\n      dup2\n      dup2\n      mstore\n      0x40\n      swap1\n      swap3\n      keccak256\n        /* \"contracts/oracle/VRFDirectFunding.sol\":1179:1183  true */\n      0x01\n        /* \"contracts/oracle/VRFDirectFunding.sol\":1146:1176  requests[_requestId].fulfilled */\n      dup2\n      dup2\n      add\n        /* \"contracts/oracle/VRFDirectFunding.sol\":1146:1183  requests[_requestId].fulfilled = true */\n      dup1\n      sload\n      not(0xff)\n      and\n      swap1\n      swap2\n      or\n      swap1\n      sstore\n        /* \"contracts/oracle/VRFDirectFunding.sol\":1194:1241  requests[_requestId].randomWords = _randomWords */\n      dup4\n      mload\n      tag_140\n      swap4\n        /* \"contracts/oracle/VRFDirectFunding.sol\":1194:1226  requests[_requestId].randomWords */\n      swap2\n      swap1\n      swap3\n      add\n      swap2\n        /* \"contracts/oracle/VRFDirectFunding.sol\":1194:1241  requests[_requestId].randomWords = _randomWords */\n      swap1\n      dup5\n      add\n      swap1\n      tag_125\n      jump\t// in\n    tag_140:\n      pop\n        /* \"contracts/oracle/VRFDirectFunding.sol\":1371:1391  requests[_requestId] */\n      0x00\n      dup3\n      dup2\n      mstore\n        /* \"contracts/oracle/VRFDirectFunding.sol\":1371:1379  requests */\n      0x02\n        /* \"contracts/oracle/VRFDirectFunding.sol\":1371:1391  requests[_requestId] */\n      0x20\n      mstore\n      0x40\n      swap1\n      dup2\n      swap1\n      keccak256\n        /* \"contracts/oracle/VRFDirectFunding.sol\":1371:1396  requests[_requestId].paid */\n      sload\n        /* \"contracts/oracle/VRFDirectFunding.sol\":1257:1408  RequestFulFilled({... */\n      swap1\n      mload\n      0x46d652f910c1c3f8651c7734dad63e55daa152581fff0faf06cf58f02a609e44\n      swap2\n      tag_141\n      swap2\n        /* \"contracts/oracle/VRFDirectFunding.sol\":1300:1310  _requestId */\n      dup6\n      swap2\n        /* \"contracts/oracle/VRFDirectFunding.sol\":1338:1350  _randomWords */\n      dup6\n      swap2\n        /* \"contracts/oracle/VRFDirectFunding.sol\":1257:1408  RequestFulFilled({... */\n      tag_142\n      jump\t// in\n    tag_141:\n      mload(0x40)\n      dup1\n      swap2\n      sub\n      swap1\n      log1\n        /* \"contracts/oracle/VRFDirectFunding.sol\":968:1416  function fulfillRandomWords(uint256 _requestId, uint256[] memory _randomWords) internal override {... */\n      pop\n      pop\n      jump\t// out\n        /* \"@chainlink/contracts/src/v0.8/shared/access/ConfirmedOwnerWithProposal.sol\":1715:1826  function _validateOwnership() internal view {... */\n    tag_75:\n        /* \"@chainlink/contracts/src/v0.8/shared/access/ConfirmedOwnerWithProposal.sol\":1787:1794  s_owner */\n      and(sub(shl(0xa0, 0x01), 0x01), sload(0x00))\n        /* \"@chainlink/contracts/src/v0.8/shared/access/ConfirmedOwnerWithProposal.sol\":1773:1783  msg.sender */\n      caller\n        /* \"@chainlink/contracts/src/v0.8/shared/access/ConfirmedOwnerWithProposal.sol\":1773:1794  msg.sender == s_owner */\n      eq\n        /* \"@chainlink/contracts/src/v0.8/shared/access/ConfirmedOwnerWithProposal.sol\":1765:1821  require(msg.sender == s_owner, \"Only callable by owner\") */\n      tag_144\n      jumpi\n      mload(0x40)\n      shl(0xe5, 0x461bcd)\n      dup2\n      mstore\n        /* \"#utility.yul\":6957:6959   */\n      0x20\n        /* \"@chainlink/contracts/src/v0.8/shared/access/ConfirmedOwnerWithProposal.sol\":1765:1821  require(msg.sender == s_owner, \"Only callable by owner\") */\n      0x04\n      dup3\n      add\n        /* \"#utility.yul\":6939:6960   */\n      mstore\n        /* \"#utility.yul\":6996:6998   */\n      0x16\n        /* \"#utility.yul\":6976:6994   */\n      0x24\n      dup3\n      add\n        /* \"#utility.yul\":6969:6999   */\n      mstore\n      shl(0x51, 0x27b7363c9031b0b63630b1363290313c9037bbb732b9)\n        /* \"#utility.yul\":7015:7033   */\n      0x44\n      dup3\n      add\n        /* \"#utility.yul\":7008:7060   */\n      mstore\n        /* \"#utility.yul\":7077:7095   */\n      0x64\n      add\n        /* \"@chainlink/contracts/src/v0.8/shared/access/ConfirmedOwnerWithProposal.sol\":1765:1821  require(msg.sender == s_owner, \"Only callable by owner\") */\n      tag_69\n        /* \"#utility.yul\":6755:7101   */\n      jump\n        /* \"@chainlink/contracts/src/v0.8/shared/access/ConfirmedOwnerWithProposal.sol\":1765:1821  require(msg.sender == s_owner, \"Only callable by owner\") */\n    tag_144:\n        /* \"@chainlink/contracts/src/v0.8/shared/access/ConfirmedOwnerWithProposal.sol\":1715:1826  function _validateOwnership() internal view {... */\n      jump\t// out\n        /* \"@chainlink/contracts/src/v0.8/vrf/VRFV2WrapperConsumerBase.sol\":2654:3053  function requestRandomness(... */\n    tag_114:\n        /* \"@chainlink/contracts/src/v0.8/vrf/VRFV2WrapperConsumerBase.sol\":2873:2928  VRF_V2_WRAPPER.calculateRequestPrice(_callbackGasLimit) */\n      mload(0x40)\n      shl(0xe2, 0x10c1b4d5)\n      dup2\n      mstore\n      0xffffffff\n        /* \"#utility.yul\":6044:6067   */\n      dup5\n      and\n        /* \"@chainlink/contracts/src/v0.8/vrf/VRFV2WrapperConsumerBase.sol\":2873:2928  VRF_V2_WRAPPER.calculateRequestPrice(_callbackGasLimit) */\n      0x04\n      dup3\n      add\n        /* \"#utility.yul\":6026:6068   */\n      mstore\n        /* \"@chainlink/contracts/src/v0.8/vrf/VRFV2WrapperConsumerBase.sol\":2789:2806  uint256 requestId */\n      0x00\n      swap1\n      sub(shl(0xa0, 0x01), 0x01)\n        /* \"@chainlink/contracts/src/v0.8/vrf/VRFV2WrapperConsumerBase.sol\":2814:2818  LINK */\n      immutable(\"0x1ec028d8f61438d0c8fe7f648326da239a9b9b5acd20368337c73966e8c44e82\")\n        /* \"@chainlink/contracts/src/v0.8/vrf/VRFV2WrapperConsumerBase.sol\":2814:2834  LINK.transferAndCall */\n      dup2\n      and\n      swap2\n      0x4000aea0\n      swap2\n        /* \"@chainlink/contracts/src/v0.8/vrf/VRFV2WrapperConsumerBase.sol\":2850:2864  VRF_V2_WRAPPER */\n      immutable(\"0xb54132232922229e38cc95c863488521e95e5e7a61a99a0c1f7114e9af332ed3\")\n      swap2\n        /* \"@chainlink/contracts/src/v0.8/vrf/VRFV2WrapperConsumerBase.sol\":2873:2909  VRF_V2_WRAPPER.calculateRequestPrice */\n      swap1\n      dup3\n      and\n      swap1\n      0x4306d354\n      swap1\n        /* \"#utility.yul\":5999:6017   */\n      0x24\n      add\n        /* \"@chainlink/contracts/src/v0.8/vrf/VRFV2WrapperConsumerBase.sol\":2873:2928  VRF_V2_WRAPPER.calculateRequestPrice(_callbackGasLimit) */\n      0x20\n      mload(0x40)\n      dup1\n      dup4\n      sub\n      dup2\n      dup7\n      gas\n      staticcall\n      iszero\n      dup1\n      iszero\n      tag_150\n      jumpi\n      returndatasize\n      0x00\n      dup1\n      returndatacopy\n      revert(0x00, returndatasize)\n    tag_150:\n      pop\n      pop\n      pop\n      pop\n      mload(0x40)\n      returndatasize\n      not(0x1f)\n      0x1f\n      dup3\n      add\n      and\n      dup3\n      add\n      dup1\n      0x40\n      mstore\n      pop\n      dup2\n      add\n      swap1\n      tag_151\n      swap2\n      swap1\n      tag_81\n      jump\t// in\n    tag_151:\n        /* \"@chainlink/contracts/src/v0.8/vrf/VRFV2WrapperConsumerBase.sol\":2936:2999  abi.encode(_callbackGasLimit, _requestConfirmations, _numWords) */\n      0x40\n      dup1\n      mload\n        /* \"#utility.yul\":7312:7322   */\n      0xffffffff\n        /* \"#utility.yul\":7349:7364   */\n      dup1\n      dup12\n      and\n        /* \"@chainlink/contracts/src/v0.8/vrf/VRFV2WrapperConsumerBase.sol\":2936:2999  abi.encode(_callbackGasLimit, _requestConfirmations, _numWords) */\n      0x20\n      dup4\n      add\n        /* \"#utility.yul\":7331:7365   */\n      mstore\n        /* \"#utility.yul\":7413:7419   */\n      0xffff\n        /* \"#utility.yul\":7401:7420   */\n      dup11\n      and\n        /* \"#utility.yul\":7381:7399   */\n      swap3\n      dup3\n      add\n        /* \"#utility.yul\":7374:7421   */\n      swap3\n      swap1\n      swap3\n      mstore\n        /* \"#utility.yul\":7457:7472   */\n      swap1\n      dup8\n      and\n        /* \"#utility.yul\":7437:7455   */\n      0x60\n      dup3\n      add\n        /* \"#utility.yul\":7430:7473   */\n      mstore\n        /* \"#utility.yul\":7275:7293   */\n      0x80\n      add\n        /* \"@chainlink/contracts/src/v0.8/vrf/VRFV2WrapperConsumerBase.sol\":2936:2999  abi.encode(_callbackGasLimit, _requestConfirmations, _numWords) */\n      mload(0x40)\n      0x20\n      dup2\n      dup4\n      sub\n      sub\n      dup2\n      mstore\n      swap1\n      0x40\n      mstore\n        /* \"@chainlink/contracts/src/v0.8/vrf/VRFV2WrapperConsumerBase.sol\":2814:3005  LINK.transferAndCall(... */\n      mload(0x40)\n      dup5\n      0xffffffff\n      and\n      0xe0\n      shl\n      dup2\n      mstore\n      0x04\n      add\n      tag_154\n      swap4\n      swap3\n      swap2\n      swap1\n      tag_155\n      jump\t// in\n    tag_154:\n      0x20\n      mload(0x40)\n      dup1\n      dup4\n      sub\n      dup2\n      0x00\n      dup8\n      gas\n      call\n      iszero\n      dup1\n      iszero\n      tag_157\n      jumpi\n      returndatasize\n      0x00\n      dup1\n      returndatacopy\n      revert(0x00, returndatasize)\n    tag_157:\n      pop\n      pop\n      pop\n      pop\n      mload(0x40)\n      returndatasize\n      not(0x1f)\n      0x1f\n      dup3\n      add\n      and\n      dup3\n      add\n      dup1\n      0x40\n      mstore\n      pop\n      dup2\n      add\n      swap1\n      tag_158\n      swap2\n      swap1\n      tag_87\n      jump\t// in\n    tag_158:\n      pop\n        /* \"@chainlink/contracts/src/v0.8/vrf/VRFV2WrapperConsumerBase.sol\":3018:3032  VRF_V2_WRAPPER */\n      immutable(\"0xb54132232922229e38cc95c863488521e95e5e7a61a99a0c1f7114e9af332ed3\")\n      sub(shl(0xa0, 0x01), 0x01)\n        /* \"@chainlink/contracts/src/v0.8/vrf/VRFV2WrapperConsumerBase.sol\":3018:3046  VRF_V2_WRAPPER.lastRequestId */\n      and\n      0xfc2a88c3\n        /* \"@chainlink/contracts/src/v0.8/vrf/VRFV2WrapperConsumerBase.sol\":3018:3048  VRF_V2_WRAPPER.lastRequestId() */\n      mload(0x40)\n      dup2\n      0xffffffff\n      and\n      0xe0\n      shl\n      dup2\n      mstore\n      0x04\n      add\n      0x20\n      mload(0x40)\n      dup1\n      dup4\n      sub\n      dup2\n      dup7\n      gas\n      staticcall\n      iszero\n      dup1\n      iszero\n      tag_160\n      jumpi\n      returndatasize\n      0x00\n      dup1\n      returndatacopy\n      revert(0x00, returndatasize)\n    tag_160:\n      pop\n      pop\n      pop\n      pop\n      mload(0x40)\n      returndatasize\n      not(0x1f)\n      0x1f\n      dup3\n      add\n      and\n      dup3\n      add\n      dup1\n      0x40\n      mstore\n      pop\n      dup2\n      add\n      swap1\n      tag_161\n      swap2\n      swap1\n      tag_81\n      jump\t// in\n    tag_161:\n        /* \"@chainlink/contracts/src/v0.8/vrf/VRFV2WrapperConsumerBase.sol\":3011:3048  return VRF_V2_WRAPPER.lastRequestId() */\n      swap5\n        /* \"@chainlink/contracts/src/v0.8/vrf/VRFV2WrapperConsumerBase.sol\":2654:3053  function requestRandomness(... */\n      swap4\n      pop\n      pop\n      pop\n      pop\n      jump\t// out\n        /* \"@chainlink/contracts/src/v0.8/shared/access/ConfirmedOwnerWithProposal.sol\":1482:1670  function _transferOwnership(address to) private {... */\n    tag_133:\n        /* \"@chainlink/contracts/src/v0.8/shared/access/ConfirmedOwnerWithProposal.sol\":1550:1560  msg.sender */\n      caller\n      sub(shl(0xa0, 0x01), 0x01)\n        /* \"@chainlink/contracts/src/v0.8/shared/access/ConfirmedOwnerWithProposal.sol\":1544:1560  to != msg.sender */\n      dup3\n      and\n      sub\n        /* \"@chainlink/contracts/src/v0.8/shared/access/ConfirmedOwnerWithProposal.sol\":1536:1588  require(to != msg.sender, \"Cannot transfer to self\") */\n      tag_163\n      jumpi\n      mload(0x40)\n      shl(0xe5, 0x461bcd)\n      dup2\n      mstore\n        /* \"#utility.yul\":8408:8410   */\n      0x20\n        /* \"@chainlink/contracts/src/v0.8/shared/access/ConfirmedOwnerWithProposal.sol\":1536:1588  require(to != msg.sender, \"Cannot transfer to self\") */\n      0x04\n      dup3\n      add\n        /* \"#utility.yul\":8390:8411   */\n      mstore\n        /* \"#utility.yul\":8447:8449   */\n      0x17\n        /* \"#utility.yul\":8427:8445   */\n      0x24\n      dup3\n      add\n        /* \"#utility.yul\":8420:8450   */\n      mstore\n        /* \"#utility.yul\":8486:8511   */\n      0x43616e6e6f74207472616e7366657220746f2073656c66000000000000000000\n        /* \"#utility.yul\":8466:8484   */\n      0x44\n      dup3\n      add\n        /* \"#utility.yul\":8459:8512   */\n      mstore\n        /* \"#utility.yul\":8529:8547   */\n      0x64\n      add\n        /* \"@chainlink/contracts/src/v0.8/shared/access/ConfirmedOwnerWithProposal.sol\":1536:1588  require(to != msg.sender, \"Cannot transfer to self\") */\n      tag_69\n        /* \"#utility.yul\":8206:8553   */\n      jump\n        /* \"@chainlink/contracts/src/v0.8/shared/access/ConfirmedOwnerWithProposal.sol\":1536:1588  require(to != msg.sender, \"Cannot transfer to self\") */\n    tag_163:\n        /* \"@chainlink/contracts/src/v0.8/shared/access/ConfirmedOwnerWithProposal.sol\":1595:1609  s_pendingOwner */\n      0x01\n        /* \"@chainlink/contracts/src/v0.8/shared/access/ConfirmedOwnerWithProposal.sol\":1595:1614  s_pendingOwner = to */\n      dup1\n      sload\n      not(sub(shl(0xa0, 0x01), 0x01))\n      and\n      sub(shl(0xa0, 0x01), 0x01)\n      dup4\n      dup2\n      and\n      swap2\n      dup3\n      or\n      swap1\n      swap3\n      sstore\n      0x00\n        /* \"@chainlink/contracts/src/v0.8/shared/access/ConfirmedOwnerWithProposal.sol\":1653:1660  s_owner */\n      dup1\n      sload\n        /* \"@chainlink/contracts/src/v0.8/shared/access/ConfirmedOwnerWithProposal.sol\":1626:1665  OwnershipTransferRequested(s_owner, to) */\n      mload(0x40)\n        /* \"@chainlink/contracts/src/v0.8/shared/access/ConfirmedOwnerWithProposal.sol\":1595:1614  s_pendingOwner = to */\n      swap3\n      swap4\n        /* \"@chainlink/contracts/src/v0.8/shared/access/ConfirmedOwnerWithProposal.sol\":1653:1660  s_owner */\n      and\n      swap2\n        /* \"@chainlink/contracts/src/v0.8/shared/access/ConfirmedOwnerWithProposal.sol\":1626:1665  OwnershipTransferRequested(s_owner, to) */\n      0xed8889f560326eb138920d842192f0eb3dd22b4f139c87a2c57538e05bae1278\n      swap2\n      swap1\n      log3\n        /* \"@chainlink/contracts/src/v0.8/shared/access/ConfirmedOwnerWithProposal.sol\":1482:1670  function _transferOwnership(address to) private {... */\n      pop\n      jump\t// out\n    tag_125:\n      dup3\n      dup1\n      sload\n      dup3\n      dup3\n      sstore\n      swap1\n      0x00\n      mstore\n      keccak256(0x00, 0x20)\n      swap1\n      dup2\n      add\n      swap3\n      dup3\n      iszero\n      tag_168\n      jumpi\n      swap2\n      0x20\n      mul\n      dup3\n      add\n    tag_167:\n      dup3\n      dup2\n      gt\n      iszero\n      tag_168\n      jumpi\n      dup3\n      mload\n      dup3\n      sstore\n      swap2\n      0x20\n      add\n      swap2\n      swap1\n      0x01\n      add\n      swap1\n      jump(tag_167)\n    tag_168:\n      pop\n      tag_169\n      swap3\n      swap2\n      pop\n      tag_170\n      jump\t// in\n    tag_169:\n      pop\n      swap1\n      jump\t// out\n    tag_170:\n    tag_171:\n      dup1\n      dup3\n      gt\n      iszero\n      tag_169\n      jumpi\n      0x00\n      dup2\n      sstore\n      0x01\n      add\n      jump(tag_171)\n        /* \"#utility.yul\":14:141   */\n    tag_122:\n        /* \"#utility.yul\":75:85   */\n      0x4e487b71\n        /* \"#utility.yul\":70:73   */\n      0xe0\n        /* \"#utility.yul\":66:86   */\n      shl\n        /* \"#utility.yul\":63:64   */\n      0x00\n        /* \"#utility.yul\":56:87   */\n      mstore\n        /* \"#utility.yul\":106:110   */\n      0x41\n        /* \"#utility.yul\":103:104   */\n      0x04\n        /* \"#utility.yul\":96:111   */\n      mstore\n        /* \"#utility.yul\":130:134   */\n      0x24\n        /* \"#utility.yul\":127:128   */\n      0x00\n        /* \"#utility.yul\":120:135   */\n      revert\n        /* \"#utility.yul\":146:1329   */\n    tag_20:\n        /* \"#utility.yul\":239:245   */\n      0x00\n        /* \"#utility.yul\":247:253   */\n      dup1\n        /* \"#utility.yul\":300:302   */\n      0x40\n        /* \"#utility.yul\":288:297   */\n      dup4\n        /* \"#utility.yul\":279:286   */\n      dup6\n        /* \"#utility.yul\":275:298   */\n      sub\n        /* \"#utility.yul\":271:303   */\n      slt\n        /* \"#utility.yul\":268:320   */\n      iszero\n      tag_177\n      jumpi\n        /* \"#utility.yul\":316:317   */\n      0x00\n        /* \"#utility.yul\":313:314   */\n      dup1\n        /* \"#utility.yul\":306:318   */\n      revert\n        /* \"#utility.yul\":268:320   */\n    tag_177:\n        /* \"#utility.yul\":352:361   */\n      dup3\n        /* \"#utility.yul\":339:362   */\n      calldataload\n        /* \"#utility.yul\":329:362   */\n      swap2\n      pop\n        /* \"#utility.yul\":381:383   */\n      0x20\n        /* \"#utility.yul\":434:436   */\n      dup1\n        /* \"#utility.yul\":423:432   */\n      dup5\n        /* \"#utility.yul\":419:437   */\n      add\n        /* \"#utility.yul\":406:438   */\n      calldataload\n        /* \"#utility.yul\":457:475   */\n      0xffffffffffffffff\n        /* \"#utility.yul\":498:500   */\n      dup1\n        /* \"#utility.yul\":490:496   */\n      dup3\n        /* \"#utility.yul\":487:501   */\n      gt\n        /* \"#utility.yul\":484:518   */\n      iszero\n      tag_178\n      jumpi\n        /* \"#utility.yul\":514:515   */\n      0x00\n        /* \"#utility.yul\":511:512   */\n      dup1\n        /* \"#utility.yul\":504:516   */\n      revert\n        /* \"#utility.yul\":484:518   */\n    tag_178:\n        /* \"#utility.yul\":552:558   */\n      dup2\n        /* \"#utility.yul\":541:550   */\n      dup7\n        /* \"#utility.yul\":537:559   */\n      add\n        /* \"#utility.yul\":527:559   */\n      swap2\n      pop\n        /* \"#utility.yul\":597:604   */\n      dup7\n        /* \"#utility.yul\":590:594   */\n      0x1f\n        /* \"#utility.yul\":586:588   */\n      dup4\n        /* \"#utility.yul\":582:595   */\n      add\n        /* \"#utility.yul\":578:605   */\n      slt\n        /* \"#utility.yul\":568:623   */\n      tag_179\n      jumpi\n        /* \"#utility.yul\":619:620   */\n      0x00\n        /* \"#utility.yul\":616:617   */\n      dup1\n        /* \"#utility.yul\":609:621   */\n      revert\n        /* \"#utility.yul\":568:623   */\n    tag_179:\n        /* \"#utility.yul\":655:657   */\n      dup2\n        /* \"#utility.yul\":642:658   */\n      calldataload\n        /* \"#utility.yul\":677:679   */\n      dup2\n        /* \"#utility.yul\":673:675   */\n      dup2\n        /* \"#utility.yul\":670:680   */\n      gt\n        /* \"#utility.yul\":667:703   */\n      iszero\n      tag_181\n      jumpi\n        /* \"#utility.yul\":683:701   */\n      tag_181\n      tag_122\n      jump\t// in\n    tag_181:\n        /* \"#utility.yul\":729:731   */\n      dup1\n        /* \"#utility.yul\":726:727   */\n      0x05\n        /* \"#utility.yul\":722:732   */\n      shl\n        /* \"#utility.yul\":761:763   */\n      0x40\n        /* \"#utility.yul\":755:764   */\n      mload\n        /* \"#utility.yul\":824:826   */\n      0x1f\n        /* \"#utility.yul\":820:827   */\n      not\n        /* \"#utility.yul\":815:817   */\n      0x3f\n        /* \"#utility.yul\":811:813   */\n      dup4\n        /* \"#utility.yul\":807:818   */\n      add\n        /* \"#utility.yul\":803:828   */\n      and\n        /* \"#utility.yul\":795:801   */\n      dup2\n        /* \"#utility.yul\":791:829   */\n      add\n        /* \"#utility.yul\":879:885   */\n      dup2\n        /* \"#utility.yul\":867:877   */\n      dup2\n        /* \"#utility.yul\":864:886   */\n      lt\n        /* \"#utility.yul\":859:861   */\n      dup6\n        /* \"#utility.yul\":847:857   */\n      dup3\n        /* \"#utility.yul\":844:862   */\n      gt\n        /* \"#utility.yul\":841:887   */\n      or\n        /* \"#utility.yul\":838:910   */\n      iszero\n      tag_183\n      jumpi\n        /* \"#utility.yul\":890:908   */\n      tag_183\n      tag_122\n      jump\t// in\n    tag_183:\n        /* \"#utility.yul\":926:928   */\n      0x40\n        /* \"#utility.yul\":919:941   */\n      mstore\n        /* \"#utility.yul\":976:994   */\n      swap2\n      dup3\n      mstore\n        /* \"#utility.yul\":1010:1025   */\n      dup5\n      dup3\n      add\n      swap3\n      pop\n        /* \"#utility.yul\":1052:1063   */\n      dup4\n      dup2\n      add\n        /* \"#utility.yul\":1048:1068   */\n      dup6\n      add\n      swap2\n        /* \"#utility.yul\":1080:1099   */\n      dup10\n      dup4\n      gt\n        /* \"#utility.yul\":1077:1116   */\n      iszero\n      tag_184\n      jumpi\n        /* \"#utility.yul\":1112:1113   */\n      0x00\n        /* \"#utility.yul\":1109:1110   */\n      dup1\n        /* \"#utility.yul\":1102:1114   */\n      revert\n        /* \"#utility.yul\":1077:1116   */\n    tag_184:\n        /* \"#utility.yul\":1136:1147   */\n      swap4\n      dup6\n      add\n      swap4\n        /* \"#utility.yul\":1156:1298   */\n    tag_185:\n        /* \"#utility.yul\":1172:1178   */\n      dup3\n        /* \"#utility.yul\":1167:1170   */\n      dup6\n        /* \"#utility.yul\":1164:1179   */\n      lt\n        /* \"#utility.yul\":1156:1298   */\n      iszero\n      tag_187\n      jumpi\n        /* \"#utility.yul\":1238:1255   */\n      dup5\n      calldataload\n        /* \"#utility.yul\":1226:1256   */\n      dup5\n      mstore\n        /* \"#utility.yul\":1189:1201   */\n      swap4\n      dup6\n      add\n      swap4\n        /* \"#utility.yul\":1276:1288   */\n      swap3\n      dup6\n      add\n      swap3\n        /* \"#utility.yul\":1156:1298   */\n      jump(tag_185)\n    tag_187:\n        /* \"#utility.yul\":1317:1323   */\n      dup1\n        /* \"#utility.yul\":1307:1323   */\n      swap7\n      pop\n      pop\n      pop\n      pop\n      pop\n      pop\n      pop\n        /* \"#utility.yul\":146:1329   */\n      swap3\n      pop\n      swap3\n      swap1\n      pop\n      jump\t// out\n        /* \"#utility.yul\":1334:1514   */\n    tag_28:\n        /* \"#utility.yul\":1393:1399   */\n      0x00\n        /* \"#utility.yul\":1446:1448   */\n      0x20\n        /* \"#utility.yul\":1434:1443   */\n      dup3\n        /* \"#utility.yul\":1425:1432   */\n      dup5\n        /* \"#utility.yul\":1421:1444   */\n      sub\n        /* \"#utility.yul\":1417:1449   */\n      slt\n        /* \"#utility.yul\":1414:1466   */\n      iszero\n      tag_189\n      jumpi\n        /* \"#utility.yul\":1462:1463   */\n      0x00\n        /* \"#utility.yul\":1459:1460   */\n      dup1\n        /* \"#utility.yul\":1452:1464   */\n      revert\n        /* \"#utility.yul\":1414:1466   */\n    tag_189:\n      pop\n        /* \"#utility.yul\":1485:1508   */\n      calldataload\n      swap2\n        /* \"#utility.yul\":1334:1514   */\n      swap1\n      pop\n      jump\t// out\n        /* \"#utility.yul\":1964:2236   */\n    tag_39:\n        /* \"#utility.yul\":2022:2028   */\n      0x00\n        /* \"#utility.yul\":2075:2077   */\n      0x20\n        /* \"#utility.yul\":2063:2072   */\n      dup3\n        /* \"#utility.yul\":2054:2061   */\n      dup5\n        /* \"#utility.yul\":2050:2073   */\n      sub\n        /* \"#utility.yul\":2046:2078   */\n      slt\n        /* \"#utility.yul\":2043:2095   */\n      iszero\n      tag_193\n      jumpi\n        /* \"#utility.yul\":2091:2092   */\n      0x00\n        /* \"#utility.yul\":2088:2089   */\n      dup1\n        /* \"#utility.yul\":2081:2093   */\n      revert\n        /* \"#utility.yul\":2043:2095   */\n    tag_193:\n        /* \"#utility.yul\":2130:2139   */\n      dup2\n        /* \"#utility.yul\":2117:2140   */\n      calldataload\n        /* \"#utility.yul\":2180:2186   */\n      0xffff\n        /* \"#utility.yul\":2173:2178   */\n      dup2\n        /* \"#utility.yul\":2169:2187   */\n      and\n        /* \"#utility.yul\":2162:2167   */\n      dup2\n        /* \"#utility.yul\":2159:2188   */\n      eq\n        /* \"#utility.yul\":2149:2206   */\n      tag_194\n      jumpi\n        /* \"#utility.yul\":2202:2203   */\n      0x00\n        /* \"#utility.yul\":2199:2200   */\n      dup1\n        /* \"#utility.yul\":2192:2204   */\n      revert\n        /* \"#utility.yul\":2149:2206   */\n    tag_194:\n        /* \"#utility.yul\":2225:2230   */\n      swap4\n        /* \"#utility.yul\":1964:2236   */\n      swap3\n      pop\n      pop\n      pop\n      jump\t// out\n        /* \"#utility.yul\":2449:2888   */\n    tag_173:\n        /* \"#utility.yul\":2502:2505   */\n      0x00\n        /* \"#utility.yul\":2540:2545   */\n      dup2\n        /* \"#utility.yul\":2534:2546   */\n      mload\n        /* \"#utility.yul\":2567:2573   */\n      dup1\n        /* \"#utility.yul\":2562:2565   */\n      dup5\n        /* \"#utility.yul\":2555:2574   */\n      mstore\n        /* \"#utility.yul\":2593:2597   */\n      0x20\n        /* \"#utility.yul\":2622:2626   */\n      dup1\n        /* \"#utility.yul\":2617:2620   */\n      dup6\n        /* \"#utility.yul\":2613:2627   */\n      add\n        /* \"#utility.yul\":2606:2627   */\n      swap5\n      pop\n        /* \"#utility.yul\":2661:2665   */\n      0x20\n        /* \"#utility.yul\":2654:2659   */\n      dup5\n        /* \"#utility.yul\":2650:2666   */\n      add\n        /* \"#utility.yul\":2684:2685   */\n      0x00\n        /* \"#utility.yul\":2694:2863   */\n    tag_197:\n        /* \"#utility.yul\":2708:2714   */\n      dup4\n        /* \"#utility.yul\":2705:2706   */\n      dup2\n        /* \"#utility.yul\":2702:2715   */\n      lt\n        /* \"#utility.yul\":2694:2863   */\n      iszero\n      tag_199\n      jumpi\n        /* \"#utility.yul\":2769:2782   */\n      dup2\n      mload\n        /* \"#utility.yul\":2757:2783   */\n      dup8\n      mstore\n        /* \"#utility.yul\":2803:2815   */\n      swap6\n      dup3\n      add\n      swap6\n        /* \"#utility.yul\":2838:2853   */\n      swap1\n      dup3\n      add\n      swap1\n        /* \"#utility.yul\":2730:2731   */\n      0x01\n        /* \"#utility.yul\":2723:2732   */\n      add\n        /* \"#utility.yul\":2694:2863   */\n      jump(tag_197)\n    tag_199:\n      pop\n        /* \"#utility.yul\":2879:2882   */\n      swap5\n      swap6\n        /* \"#utility.yul\":2449:2888   */\n      swap5\n      pop\n      pop\n      pop\n      pop\n      pop\n      jump\t// out\n        /* \"#utility.yul\":2893:3154   */\n    tag_49:\n        /* \"#utility.yul\":3072:3074   */\n      0x20\n        /* \"#utility.yul\":3061:3070   */\n      dup2\n        /* \"#utility.yul\":3054:3075   */\n      mstore\n        /* \"#utility.yul\":3035:3039   */\n      0x00\n        /* \"#utility.yul\":3092:3148   */\n      tag_194\n        /* \"#utility.yul\":3144:3146   */\n      0x20\n        /* \"#utility.yul\":3133:3142   */\n      dup4\n        /* \"#utility.yul\":3129:3147   */\n      add\n        /* \"#utility.yul\":3121:3127   */\n      dup5\n        /* \"#utility.yul\":3092:3148   */\n      tag_173\n      jump\t// in\n        /* \"#utility.yul\":3159:3435   */\n    tag_52:\n        /* \"#utility.yul\":3217:3223   */\n      0x00\n        /* \"#utility.yul\":3270:3272   */\n      0x20\n        /* \"#utility.yul\":3258:3267   */\n      dup3\n        /* \"#utility.yul\":3249:3256   */\n      dup5\n        /* \"#utility.yul\":3245:3268   */\n      sub\n        /* \"#utility.yul\":3241:3273   */\n      slt\n        /* \"#utility.yul\":3238:3290   */\n      iszero\n      tag_203\n      jumpi\n        /* \"#utility.yul\":3286:3287   */\n      0x00\n        /* \"#utility.yul\":3283:3284   */\n      dup1\n        /* \"#utility.yul\":3276:3288   */\n      revert\n        /* \"#utility.yul\":3238:3290   */\n    tag_203:\n        /* \"#utility.yul\":3325:3334   */\n      dup2\n        /* \"#utility.yul\":3312:3335   */\n      calldataload\n        /* \"#utility.yul\":3375:3385   */\n      0xffffffff\n        /* \"#utility.yul\":3368:3373   */\n      dup2\n        /* \"#utility.yul\":3364:3386   */\n      and\n        /* \"#utility.yul\":3357:3362   */\n      dup2\n        /* \"#utility.yul\":3354:3387   */\n      eq\n        /* \"#utility.yul\":3344:3405   */\n      tag_194\n      jumpi\n        /* \"#utility.yul\":3401:3402   */\n      0x00\n        /* \"#utility.yul\":3398:3399   */\n      dup1\n        /* \"#utility.yul\":3391:3403   */\n      revert\n        /* \"#utility.yul\":3440:3726   */\n    tag_59:\n        /* \"#utility.yul\":3499:3505   */\n      0x00\n        /* \"#utility.yul\":3552:3554   */\n      0x20\n        /* \"#utility.yul\":3540:3549   */\n      dup3\n        /* \"#utility.yul\":3531:3538   */\n      dup5\n        /* \"#utility.yul\":3527:3550   */\n      sub\n        /* \"#utility.yul\":3523:3555   */\n      slt\n        /* \"#utility.yul\":3520:3572   */\n      iszero\n      tag_206\n      jumpi\n        /* \"#utility.yul\":3568:3569   */\n      0x00\n        /* \"#utility.yul\":3565:3566   */\n      dup1\n        /* \"#utility.yul\":3558:3570   */\n      revert\n        /* \"#utility.yul\":3520:3572   */\n    tag_206:\n        /* \"#utility.yul\":3594:3617   */\n      dup2\n      calldataload\n      sub(shl(0xa0, 0x01), 0x01)\n        /* \"#utility.yul\":3646:3677   */\n      dup2\n      and\n        /* \"#utility.yul\":3636:3678   */\n      dup2\n      eq\n        /* \"#utility.yul\":3626:3696   */\n      tag_194\n      jumpi\n        /* \"#utility.yul\":3692:3693   */\n      0x00\n        /* \"#utility.yul\":3689:3690   */\n      dup1\n        /* \"#utility.yul\":3682:3694   */\n      revert\n        /* \"#utility.yul\":4091:4275   */\n    tag_81:\n        /* \"#utility.yul\":4161:4167   */\n      0x00\n        /* \"#utility.yul\":4214:4216   */\n      0x20\n        /* \"#utility.yul\":4202:4211   */\n      dup3\n        /* \"#utility.yul\":4193:4200   */\n      dup5\n        /* \"#utility.yul\":4189:4212   */\n      sub\n        /* \"#utility.yul\":4185:4217   */\n      slt\n        /* \"#utility.yul\":4182:4234   */\n      iszero\n      tag_210\n      jumpi\n        /* \"#utility.yul\":4230:4231   */\n      0x00\n        /* \"#utility.yul\":4227:4228   */\n      dup1\n        /* \"#utility.yul\":4220:4232   */\n      revert\n        /* \"#utility.yul\":4182:4234   */\n    tag_210:\n      pop\n        /* \"#utility.yul\":4253:4269   */\n      mload\n      swap2\n        /* \"#utility.yul\":4091:4275   */\n      swap1\n      pop\n      jump\t// out\n        /* \"#utility.yul\":4559:4836   */\n    tag_87:\n        /* \"#utility.yul\":4626:4632   */\n      0x00\n        /* \"#utility.yul\":4679:4681   */\n      0x20\n        /* \"#utility.yul\":4667:4676   */\n      dup3\n        /* \"#utility.yul\":4658:4665   */\n      dup5\n        /* \"#utility.yul\":4654:4677   */\n      sub\n        /* \"#utility.yul\":4650:4682   */\n      slt\n        /* \"#utility.yul\":4647:4699   */\n      iszero\n      tag_213\n      jumpi\n        /* \"#utility.yul\":4695:4696   */\n      0x00\n        /* \"#utility.yul\":4692:4693   */\n      dup1\n        /* \"#utility.yul\":4685:4697   */\n      revert\n        /* \"#utility.yul\":4647:4699   */\n    tag_213:\n        /* \"#utility.yul\":4727:4736   */\n      dup2\n        /* \"#utility.yul\":4721:4737   */\n      mload\n        /* \"#utility.yul\":4780:4785   */\n      dup1\n        /* \"#utility.yul\":4773:4786   */\n      iszero\n        /* \"#utility.yul\":4766:4787   */\n      iszero\n        /* \"#utility.yul\":4759:4764   */\n      dup2\n        /* \"#utility.yul\":4756:4788   */\n      eq\n        /* \"#utility.yul\":4746:4806   */\n      tag_194\n      jumpi\n        /* \"#utility.yul\":4802:4803   */\n      0x00\n        /* \"#utility.yul\":4799:4800   */\n      dup1\n        /* \"#utility.yul\":4792:4804   */\n      revert\n        /* \"#utility.yul\":6347:6750   */\n    tag_142:\n        /* \"#utility.yul\":6582:6588   */\n      dup4\n        /* \"#utility.yul\":6571:6580   */\n      dup2\n        /* \"#utility.yul\":6564:6589   */\n      mstore\n        /* \"#utility.yul\":6625:6627   */\n      0x60\n        /* \"#utility.yul\":6620:6622   */\n      0x20\n        /* \"#utility.yul\":6609:6618   */\n      dup3\n        /* \"#utility.yul\":6605:6623   */\n      add\n        /* \"#utility.yul\":6598:6628   */\n      mstore\n        /* \"#utility.yul\":6545:6549   */\n      0x00\n        /* \"#utility.yul\":6645:6701   */\n      tag_221\n        /* \"#utility.yul\":6697:6699   */\n      0x60\n        /* \"#utility.yul\":6686:6695   */\n      dup4\n        /* \"#utility.yul\":6682:6700   */\n      add\n        /* \"#utility.yul\":6674:6680   */\n      dup6\n        /* \"#utility.yul\":6645:6701   */\n      tag_173\n      jump\t// in\n    tag_221:\n        /* \"#utility.yul\":6637:6701   */\n      swap1\n      pop\n        /* \"#utility.yul\":6737:6743   */\n      dup3\n        /* \"#utility.yul\":6732:6734   */\n      0x40\n        /* \"#utility.yul\":6721:6730   */\n      dup4\n        /* \"#utility.yul\":6717:6735   */\n      add\n        /* \"#utility.yul\":6710:6744   */\n      mstore\n        /* \"#utility.yul\":6347:6750   */\n      swap5\n      swap4\n      pop\n      pop\n      pop\n      pop\n      jump\t// out\n        /* \"#utility.yul\":7484:8201   */\n    tag_155:\n        /* \"#utility.yul\":7716:7717   */\n      0x01\n        /* \"#utility.yul\":7712:7713   */\n      dup1\n        /* \"#utility.yul\":7707:7710   */\n      0xa0\n        /* \"#utility.yul\":7703:7714   */\n      shl\n        /* \"#utility.yul\":7699:7718   */\n      sub\n        /* \"#utility.yul\":7691:7697   */\n      dup5\n        /* \"#utility.yul\":7687:7719   */\n      and\n        /* \"#utility.yul\":7676:7685   */\n      dup2\n        /* \"#utility.yul\":7669:7720   */\n      mstore\n        /* \"#utility.yul\":7650:7654   */\n      0x00\n        /* \"#utility.yul\":7739:7741   */\n      0x20\n        /* \"#utility.yul\":7777:7783   */\n      dup5\n        /* \"#utility.yul\":7772:7774   */\n      0x20\n        /* \"#utility.yul\":7761:7770   */\n      dup5\n        /* \"#utility.yul\":7757:7775   */\n      add\n        /* \"#utility.yul\":7750:7784   */\n      mstore\n        /* \"#utility.yul\":7820:7822   */\n      0x60\n        /* \"#utility.yul\":7815:7817   */\n      0x40\n        /* \"#utility.yul\":7804:7813   */\n      dup5\n        /* \"#utility.yul\":7800:7818   */\n      add\n        /* \"#utility.yul\":7793:7823   */\n      mstore\n        /* \"#utility.yul\":7852:7858   */\n      dup4\n        /* \"#utility.yul\":7846:7859   */\n      mload\n        /* \"#utility.yul\":7895:7901   */\n      dup1\n        /* \"#utility.yul\":7890:7892   */\n      0x60\n        /* \"#utility.yul\":7879:7888   */\n      dup6\n        /* \"#utility.yul\":7875:7893   */\n      add\n        /* \"#utility.yul\":7868:7902   */\n      mstore\n        /* \"#utility.yul\":7920:7921   */\n      0x00\n        /* \"#utility.yul\":7930:8071   */\n    tag_225:\n        /* \"#utility.yul\":7944:7950   */\n      dup2\n        /* \"#utility.yul\":7941:7942   */\n      dup2\n        /* \"#utility.yul\":7938:7951   */\n      lt\n        /* \"#utility.yul\":7930:8071   */\n      iszero\n      tag_227\n      jumpi\n        /* \"#utility.yul\":8040:8054   */\n      dup6\n      dup2\n      add\n        /* \"#utility.yul\":8036:8059   */\n      dup4\n      add\n        /* \"#utility.yul\":8030:8060   */\n      mload\n        /* \"#utility.yul\":8005:8022   */\n      dup6\n      dup3\n      add\n        /* \"#utility.yul\":8024:8027   */\n      0x80\n        /* \"#utility.yul\":8001:8028   */\n      add\n        /* \"#utility.yul\":7994:8061   */\n      mstore\n        /* \"#utility.yul\":7959:7969   */\n      dup3\n      add\n        /* \"#utility.yul\":7930:8071   */\n      jump(tag_225)\n    tag_227:\n        /* \"#utility.yul\":7934:7937   */\n      pop\n        /* \"#utility.yul\":8121:8122   */\n      0x00\n        /* \"#utility.yul\":8115:8118   */\n      0x80\n        /* \"#utility.yul\":8106:8112   */\n      dup3\n        /* \"#utility.yul\":8095:8104   */\n      dup7\n        /* \"#utility.yul\":8091:8113   */\n      add\n        /* \"#utility.yul\":8087:8119   */\n      add\n        /* \"#utility.yul\":8080:8123   */\n      mstore\n        /* \"#utility.yul\":8191:8194   */\n      0x80\n        /* \"#utility.yul\":8184:8186   */\n      0x1f\n        /* \"#utility.yul\":8180:8187   */\n      not\n        /* \"#utility.yul\":8175:8177   */\n      0x1f\n        /* \"#utility.yul\":8167:8173   */\n      dup4\n        /* \"#utility.yul\":8163:8178   */\n      add\n        /* \"#utility.yul\":8159:8188   */\n      and\n        /* \"#utility.yul\":8148:8157   */\n      dup6\n        /* \"#utility.yul\":8144:8189   */\n      add\n        /* \"#utility.yul\":8140:8195   */\n      add\n        /* \"#utility.yul\":8132:8195   */\n      swap3\n      pop\n      pop\n      pop\n        /* \"#utility.yul\":7484:8201   */\n      swap5\n      swap4\n      pop\n      pop\n      pop\n      pop\n      jump\t// out\n\n    auxdata: 0xa26469706673582212202d4298e6974a1c0f08bab66dcbf0ec7aa3936d8040e8ca0e7d02a71b067d84a264736f6c63430008180033\n}\n",
				"bytecode": {
					"linkReferences": {},
					"object": "60c060405260018054600160a01b600160f01b0319167c0300000001000186a00000000000000000000000000000000000000000179055348015610041575f80fd5b5060405161106b38038061106b833981016040819052610060916101c4565b6001600160a01b03808316608052811660a05233805f816100c85760405162461bcd60e51b815260206004820152601860248201527f43616e6e6f7420736574206f776e657220746f207a65726f000000000000000060448201526064015b60405180910390fd5b5f80546001600160a01b0319166001600160a01b03848116919091179091558116156100f7576100f781610101565b50505050506101f5565b336001600160a01b038216036101595760405162461bcd60e51b815260206004820152601760248201527f43616e6e6f74207472616e7366657220746f2073656c6600000000000000000060448201526064016100bf565b600180546001600160a01b0319166001600160a01b038381169182179092555f8054604051929316917fed8889f560326eb138920d842192f0eb3dd22b4f139c87a2c57538e05bae12789190a350565b80516001600160a01b03811681146101bf575f80fd5b919050565b5f80604083850312156101d5575f80fd5b6101de836101a9565b91506101ec602084016101a9565b90509250929050565b60805160a051610e396102325f395f81816101fa01528181610600015281816109060152610a0a01525f818161029701526108dc0152610e395ff3fe608060405234801561000f575f80fd5b50600436106100cb575f3560e01c80638da5cb5b11610088578063da9f755011610063578063da9f7550146101b8578063f2fde38b146101c0578063f30c07d3146101d3578063fc2a88c3146101e6575f80fd5b80638da5cb5b1461016b578063995e433914610185578063a4eb718c146101a5575f80fd5b80631fe543e3146100cf5780633ccfd60b146100e457806379ba5097146100ec57806381d12c58146100f45780638796ba8c146101375780638824f5a714610158575b5f80fd5b6100e26100dd366004610ba9565b6101ef565b005b6100e261027a565b6100e26103c1565b61011d610102366004610c6e565b60026020525f90815260409020805460019091015460ff1682565b604080519283529015156020830152015b60405180910390f35b61014a610145366004610c6e565b61046a565b60405190815260200161012e565b6100e2610166366004610c85565b610489565b5f546040516001600160a01b03909116815260200161012e565b610198610193366004610c6e565b6104b3565b60405161012e9190610ce7565b6100e26101b3366004610cf9565b610564565b61014a610592565b6100e26101ce366004610d1c565b610754565b6100e26101e1366004610cf9565b610765565b61014a60045481565b336001600160a01b037f0000000000000000000000000000000000000000000000000000000000000000161461026c5760405162461bcd60e51b815260206004820152601f60248201527f6f6e6c792056524620563220777261707065722063616e2066756c66696c6c0060448201526064015b60405180910390fd5b6102768282610793565b5050565b610282610863565b6040516370a0823160e01b81523060048201527f0000000000000000000000000000000000000000000000000000000000000000906001600160a01b0382169063a9059cbb90339083906370a0823190602401602060405180830381865afa1580156102f0573d5f803e3d5ffd5b505050506040513d601f19601f820116820180604052508101906103149190610d42565b6040516001600160e01b031960e085901b1681526001600160a01b03909216600483015260248201526044016020604051808303815f875af115801561035c573d5f803e3d5ffd5b505050506040513d601f19601f820116820180604052508101906103809190610d59565b6103be5760405162461bcd60e51b815260206004820152600f60248201526e3ab730b13632903a3930b739b332b960891b6044820152606401610263565b50565b6001546001600160a01b031633146104145760405162461bcd60e51b815260206004820152601660248201527526bab9ba10313290383937b837b9b2b21037bbb732b960511b6044820152606401610263565b5f8054336001600160a01b0319808316821784556001805490911690556040516001600160a01b0390921692909183917f8be0079c531659141344cd1fd0a4f28419497f9722a3daafe3b4186f6b6457e091a350565b60038181548110610479575f80fd5b5f91825260209091200154905081565b610491610863565b6001805461ffff909216600160e01b0261ffff60e01b19909216919091179055565b5f818152600260205260409020546060906105045760405162461bcd60e51b81526020600482015260116024820152701c995c5d595cdd081b9bdd08199bdd5b99607a1b6044820152606401610263565b5f828152600260208181526040928390209091018054835181840281018401909452808452909183018282801561055857602002820191905f5260205f20905b815481526020019060010190808311610544575b50505050509050919050565b61056c610863565b6001805463ffffffff909216600160a01b0263ffffffff60a01b19909216919091179055565b5f61059b610863565b6001545f906105cd9063ffffffff600160a01b820481169161ffff600160e01b82041691600160c01b909104166108b7565b6040805160608101918290526001546310c1b4d560e21b909252600160a01b90910463ffffffff166064820152909150807f00000000000000000000000000000000000000000000000000000000000000006001600160a01b0316634306d35460848301602060405180830381865afa15801561064c573d5f803e3d5ffd5b505050506040513d601f19601f820116820180604052508101906106709190610d42565b81525f602080830182905260408051838152808301825293810193909352848252600280825291839020845181558482015160018201805460ff19169115159190911790559284015180516106cc938501929190910190610b38565b505060038054600180820183555f929092527fc2575a0e9e593c00f959f8c92f12db2869c3395a3b0502d05e2516446f71f85b0183905560048390555460408051848152600160c01b90920463ffffffff1660208301527fcc58b13ad3eab50626c6a6300b1d139cd6ebb1688a7cced9461c2f7e762665ee92500160405180910390a1905090565b61075c610863565b6103be81610a90565b61076d610863565b6001805463ffffffff909216600160c01b0263ffffffff60c01b19909216919091179055565b5f828152600260205260409020546107e15760405162461bcd60e51b81526020600482015260116024820152701c995c5d595cdd081b9bdd08199bdd5b99607a1b6044820152606401610263565b5f8281526002602081815260409092206001818101805460ff19169091179055835161081593919092019190840190610b38565b505f82815260026020526040908190205490517f46d652f910c1c3f8651c7734dad63e55daa152581fff0faf06cf58f02a609e44916108579185918591610d78565b60405180910390a15050565b5f546001600160a01b031633146108b55760405162461bcd60e51b815260206004820152601660248201527527b7363c9031b0b63630b1363290313c9037bbb732b960511b6044820152606401610263565b565b6040516310c1b4d560e21b815263ffffffff841660048201525f906001600160a01b037f0000000000000000000000000000000000000000000000000000000000000000811691634000aea0917f00000000000000000000000000000000000000000000000000000000000000009190821690634306d35490602401602060405180830381865afa15801561094e573d5f803e3d5ffd5b505050506040513d601f19601f820116820180604052508101906109729190610d42565b6040805163ffffffff808b16602083015261ffff8a169282019290925290871660608201526080016040516020818303038152906040526040518463ffffffff1660e01b81526004016109c793929190610da0565b6020604051808303815f875af11580156109e3573d5f803e3d5ffd5b505050506040513d601f19601f82011682018060405250810190610a079190610d59565b507f00000000000000000000000000000000000000000000000000000000000000006001600160a01b031663fc2a88c36040518163ffffffff1660e01b8152600401602060405180830381865afa158015610a64573d5f803e3d5ffd5b505050506040513d601f19601f82011682018060405250810190610a889190610d42565b949350505050565b336001600160a01b03821603610ae85760405162461bcd60e51b815260206004820152601760248201527f43616e6e6f74207472616e7366657220746f2073656c660000000000000000006044820152606401610263565b600180546001600160a01b0319166001600160a01b038381169182179092555f8054604051929316917fed8889f560326eb138920d842192f0eb3dd22b4f139c87a2c57538e05bae12789190a350565b828054828255905f5260205f20908101928215610b71579160200282015b82811115610b71578251825591602001919060010190610b56565b50610b7d929150610b81565b5090565b5b80821115610b7d575f8155600101610b82565b634e487b7160e01b5f52604160045260245ffd5b5f8060408385031215610bba575f80fd5b8235915060208084013567ffffffffffffffff80821115610bd9575f80fd5b818601915086601f830112610bec575f80fd5b813581811115610bfe57610bfe610b95565b8060051b604051601f19603f83011681018181108582111715610c2357610c23610b95565b604052918252848201925083810185019189831115610c40575f80fd5b938501935b82851015610c5e57843584529385019392850192610c45565b8096505050505050509250929050565b5f60208284031215610c7e575f80fd5b5035919050565b5f60208284031215610c95575f80fd5b813561ffff81168114610ca6575f80fd5b9392505050565b5f815180845260208085019450602084015f5b83811015610cdc57815187529582019590820190600101610cc0565b509495945050505050565b602081525f610ca66020830184610cad565b5f60208284031215610d09575f80fd5b813563ffffffff81168114610ca6575f80fd5b5f60208284031215610d2c575f80fd5b81356001600160a01b0381168114610ca6575f80fd5b5f60208284031215610d52575f80fd5b5051919050565b5f60208284031215610d69575f80fd5b81518015158114610ca6575f80fd5b838152606060208201525f610d906060830185610cad565b9050826040830152949350505050565b60018060a01b03841681525f60208460208401526060604084015283518060608501525f5b81811015610de157858101830151858201608001528201610dc5565b505f608082860101526080601f19601f8301168501019250505094935050505056fea26469706673582212202d4298e6974a1c0f08bab66dcbf0ec7aa3936d8040e8ca0e7d02a71b067d84a264736f6c63430008180033",
					"opcodes": "PUSH1 0xC0 PUSH1 0x40 MSTORE PUSH1 0x1 DUP1 SLOAD PUSH1 0x1 PUSH1 0xA0 SHL PUSH1 0x1 PUSH1 0xF0 SHL SUB NOT AND PUSH29 0x300000001000186A00000000000000000000000000000000000000000 OR SWAP1 SSTORE CALLVALUE DUP1 ISZERO PUSH2 0x41 JUMPI PUSH0 DUP1 REVERT JUMPDEST POP PUSH1 0x40 MLOAD PUSH2 0x106B CODESIZE SUB DUP1 PUSH2 0x106B DUP4 CODECOPY DUP2 ADD PUSH1 0x40 DUP2 SWAP1 MSTORE PUSH2 0x60 SWAP2 PUSH2 0x1C4 JUMP JUMPDEST PUSH1 0x1 PUSH1 0x1 PUSH1 0xA0 SHL SUB DUP1 DUP4 AND PUSH1 0x80 MSTORE DUP2 AND PUSH1 0xA0 MSTORE CALLER DUP1 PUSH0 DUP2 PUSH2 0xC8 JUMPI PUSH1 0x40 MLOAD PUSH3 0x461BCD PUSH1 0xE5 SHL DUP2 MSTORE PUSH1 0x20 PUSH1 0x4 DUP3 ADD MSTORE PUSH1 0x18 PUSH1 0x24 DUP3 ADD MSTORE PUSH32 0x43616E6E6F7420736574206F776E657220746F207A65726F0000000000000000 PUSH1 0x44 DUP3 ADD MSTORE PUSH1 0x64 ADD JUMPDEST PUSH1 0x40 MLOAD DUP1 SWAP2 SUB SWAP1 REVERT JUMPDEST PUSH0 DUP1 SLOAD PUSH1 0x1 PUSH1 0x1 PUSH1 0xA0 SHL SUB NOT AND PUSH1 0x1 PUSH1 0x1 PUSH1 0xA0 SHL SUB DUP5 DUP2 AND SWAP2 SWAP1 SWAP2 OR SWAP1 SWAP2 SSTORE DUP2 AND ISZERO PUSH2 0xF7 JUMPI PUSH2 0xF7 DUP2 PUSH2 0x101 JUMP JUMPDEST POP POP POP POP POP PUSH2 0x1F5 JUMP JUMPDEST CALLER PUSH1 0x1 PUSH1 0x1 PUSH1 0xA0 SHL SUB DUP3 AND SUB PUSH2 0x159 JUMPI PUSH1 0x40 MLOAD PUSH3 0x461BCD PUSH1 0xE5 SHL DUP2 MSTORE PUSH1 0x20 PUSH1 0x4 DUP3 ADD MSTORE PUSH1 0x17 PUSH1 0x24 DUP3 ADD MSTORE PUSH32 0x43616E6E6F74207472616E7366657220746F2073656C66000000000000000000 PUSH1 0x44 DUP3 ADD MSTORE PUSH1 0x64 ADD PUSH2 0xBF JUMP JUMPDEST PUSH1 0x1 DUP1 SLOAD PUSH1 0x1 PUSH1 0x1 PUSH1 0xA0 SHL SUB NOT AND PUSH1 0x1 PUSH1 0x1 PUSH1 0xA0 SHL SUB DUP4 DUP2 AND SWAP2 DUP3 OR SWAP1 SWAP3 SSTORE PUSH0 DUP1 SLOAD PUSH1 0x40 MLOAD SWAP3 SWAP4 AND SWAP2 PUSH32 0xED8889F560326EB138920D842192F0EB3DD22B4F139C87A2C57538E05BAE1278 SWAP2 SWAP1 LOG3 POP JUMP JUMPDEST DUP1 MLOAD PUSH1 0x1 PUSH1 0x1 PUSH1 0xA0 SHL SUB DUP2 AND DUP2 EQ PUSH2 0x1BF JUMPI PUSH0 DUP1 REVERT JUMPDEST SWAP2 SWAP1 POP JUMP JUMPDEST PUSH0 DUP1 PUSH1 0x40 DUP4 DUP6 SUB SLT ISZERO PUSH2 0x1D5 JUMPI PUSH0 DUP1 REVERT JUMPDEST PUSH2 0x1DE DUP4 PUSH2 0x1A9 JUMP JUMPDEST SWAP2 POP PUSH2 0x1EC PUSH1 0x20 DUP5 ADD PUSH2 0x1A9 JUMP JUMPDEST SWAP1 POP SWAP3 POP SWAP3 SWAP1 POP JUMP JUMPDEST PUSH1 0x80 MLOAD PUSH1 0xA0 MLOAD PUSH2 0xE39 PUSH2 0x232 PUSH0 CODECOPY PUSH0 DUP2 DUP2 PUSH2 0x1FA ADD MSTORE DUP2 DUP2 PUSH2 0x600 ADD MSTORE DUP2 DUP2 PUSH2 0x906 ADD MSTORE PUSH2 0xA0A ADD MSTORE PUSH0 DUP2 DUP2 PUSH2 0x297 ADD MSTORE PUSH2 0x8DC ADD MSTORE PUSH2 0xE39 PUSH0 RETURN INVALID PUSH1 0x80 PUSH1 0x40 MSTORE CALLVALUE DUP1 ISZERO PUSH2 0xF JUMPI PUSH0 DUP1 REVERT JUMPDEST POP PUSH1 0x4 CALLDATASIZE LT PUSH2 0xCB JUMPI PUSH0 CALLDATALOAD PUSH1 0xE0 SHR DUP1 PUSH4 0x8DA5CB5B GT PUSH2 0x88 JUMPI DUP1 PUSH4 0xDA9F7550 GT PUSH2 0x63 JUMPI DUP1 PUSH4 0xDA9F7550 EQ PUSH2 0x1B8 JUMPI DUP1 PUSH4 0xF2FDE38B EQ PUSH2 0x1C0 JUMPI DUP1 PUSH4 0xF30C07D3 EQ PUSH2 0x1D3 JUMPI DUP1 PUSH4 0xFC2A88C3 EQ PUSH2 0x1E6 JUMPI PUSH0 DUP1 REVERT JUMPDEST DUP1 PUSH4 0x8DA5CB5B EQ PUSH2 0x16B JUMPI DUP1 PUSH4 0x995E4339 EQ PUSH2 0x185 JUMPI DUP1 PUSH4 0xA4EB718C EQ PUSH2 0x1A5 JUMPI PUSH0 DUP1 REVERT JUMPDEST DUP1 PUSH4 0x1FE543E3 EQ PUSH2 0xCF JUMPI DUP1 PUSH4 0x3CCFD60B EQ PUSH2 0xE4 JUMPI DUP1 PUSH4 0x79BA5097 EQ PUSH2 0xEC JUMPI DUP1 PUSH4 0x81D12C58 EQ PUSH2 0xF4 JUMPI DUP1 PUSH4 0x8796BA8C EQ PUSH2 0x137 JUMPI DUP1 PUSH4 0x8824F5A7 EQ PUSH2 0x158 JUMPI JUMPDEST PUSH0 DUP1 REVERT JUMPDEST PUSH2 0xE2 PUSH2 0xDD CALLDATASIZE PUSH1 0x4 PUSH2 0xBA9 JUMP JUMPDEST PUSH2 0x1EF JUMP JUMPDEST STOP JUMPDEST PUSH2 0xE2 PUSH2 0x27A JUMP JUMPDEST PUSH2 0xE2 PUSH2 0x3C1 JUMP JUMPDEST PUSH2 0x11D PUSH2 0x102 CALLDATASIZE PUSH1 0x4 PUSH2 0xC6E JUMP JUMPDEST PUSH1 0x2 PUSH1 0x20 MSTORE PUSH0 SWAP1 DUP2 MSTORE PUSH1 0x40 SWAP1 KECCAK256 DUP1 SLOAD PUSH1 0x1 SWAP1 SWAP2 ADD SLOAD PUSH1 0xFF AND DUP3 JUMP JUMPDEST PUSH1 0x40 DUP1 MLOAD SWAP3 DUP4 MSTORE SWAP1 ISZERO ISZERO PUSH1 0x20 DUP4 ADD MSTORE ADD JUMPDEST PUSH1 0x40 MLOAD DUP1 SWAP2 SUB SWAP1 RETURN JUMPDEST PUSH2 0x14A PUSH2 0x145 CALLDATASIZE PUSH1 0x4 PUSH2 0xC6E JUMP JUMPDEST PUSH2 0x46A JUMP JUMPDEST PUSH1 0x40 MLOAD SWAP1 DUP2 MSTORE PUSH1 0x20 ADD PUSH2 0x12E JUMP JUMPDEST PUSH2 0xE2 PUSH2 0x166 CALLDATASIZE PUSH1 0x4 PUSH2 0xC85 JUMP JUMPDEST PUSH2 0x489 JUMP JUMPDEST PUSH0 SLOAD PUSH1 0x40 MLOAD PUSH1 0x1 PUSH1 0x1 PUSH1 0xA0 SHL SUB SWAP1 SWAP2 AND DUP2 MSTORE PUSH1 0x20 ADD PUSH2 0x12E JUMP JUMPDEST PUSH2 0x198 PUSH2 0x193 CALLDATASIZE PUSH1 0x4 PUSH2 0xC6E JUMP JUMPDEST PUSH2 0x4B3 JUMP JUMPDEST PUSH1 0x40 MLOAD PUSH2 0x12E SWAP2 SWAP1 PUSH2 0xCE7 JUMP JUMPDEST PUSH2 0xE2 PUSH2 0x1B3 CALLDATASIZE PUSH1 0x4 PUSH2 0xCF9 JUMP JUMPDEST PUSH2 0x564 JUMP JUMPDEST PUSH2 0x14A PUSH2 0x592 JUMP JUMPDEST PUSH2 0xE2 PUSH2 0x1CE CALLDATASIZE PUSH1 0x4 PUSH2 0xD1C JUMP JUMPDEST PUSH2 0x754 JUMP JUMPDEST PUSH2 0xE2 PUSH2 0x1E1 CALLDATASIZE PUSH1 0x4 PUSH2 0xCF9 JUMP JUMPDEST PUSH2 0x765 JUMP JUMPDEST PUSH2 0x14A PUSH1 0x4 SLOAD DUP2 JUMP JUMPDEST CALLER PUSH1 0x1 PUSH1 0x1 PUSH1 0xA0 SHL SUB PUSH32 0x0 AND EQ PUSH2 0x26C JUMPI PUSH1 0x40 MLOAD PUSH3 0x461BCD PUSH1 0xE5 SHL DUP2 MSTORE PUSH1 0x20 PUSH1 0x4 DUP3 ADD MSTORE PUSH1 0x1F PUSH1 0x24 DUP3 ADD MSTORE PUSH32 0x6F6E6C792056524620563220777261707065722063616E2066756C66696C6C00 PUSH1 0x44 DUP3 ADD MSTORE PUSH1 0x64 ADD JUMPDEST PUSH1 0x40 MLOAD DUP1 SWAP2 SUB SWAP1 REVERT JUMPDEST PUSH2 0x276 DUP3 DUP3 PUSH2 0x793 JUMP JUMPDEST POP POP JUMP JUMPDEST PUSH2 0x282 PUSH2 0x863 JUMP JUMPDEST PUSH1 0x40 MLOAD PUSH4 0x70A08231 PUSH1 0xE0 SHL DUP2 MSTORE ADDRESS PUSH1 0x4 DUP3 ADD MSTORE PUSH32 0x0 SWAP1 PUSH1 0x1 PUSH1 0x1 PUSH1 0xA0 SHL SUB DUP3 AND SWAP1 PUSH4 0xA9059CBB SWAP1 CALLER SWAP1 DUP4 SWAP1 PUSH4 0x70A08231 SWAP1 PUSH1 0x24 ADD PUSH1 0x20 PUSH1 0x40 MLOAD DUP1 DUP4 SUB DUP2 DUP7 GAS STATICCALL ISZERO DUP1 ISZERO PUSH2 0x2F0 JUMPI RETURNDATASIZE PUSH0 DUP1 RETURNDATACOPY RETURNDATASIZE PUSH0 REVERT JUMPDEST POP POP POP POP PUSH1 0x40 MLOAD RETURNDATASIZE PUSH1 0x1F NOT PUSH1 0x1F DUP3 ADD AND DUP3 ADD DUP1 PUSH1 0x40 MSTORE POP DUP2 ADD SWAP1 PUSH2 0x314 SWAP2 SWAP1 PUSH2 0xD42 JUMP JUMPDEST PUSH1 0x40 MLOAD PUSH1 0x1 PUSH1 0x1 PUSH1 0xE0 SHL SUB NOT PUSH1 0xE0 DUP6 SWAP1 SHL AND DUP2 MSTORE PUSH1 0x1 PUSH1 0x1 PUSH1 0xA0 SHL SUB SWAP1 SWAP3 AND PUSH1 0x4 DUP4 ADD MSTORE PUSH1 0x24 DUP3 ADD MSTORE PUSH1 0x44 ADD PUSH1 0x20 PUSH1 0x40 MLOAD DUP1 DUP4 SUB DUP2 PUSH0 DUP8 GAS CALL ISZERO DUP1 ISZERO PUSH2 0x35C JUMPI RETURNDATASIZE PUSH0 DUP1 RETURNDATACOPY RETURNDATASIZE PUSH0 REVERT JUMPDEST POP POP POP POP PUSH1 0x40 MLOAD RETURNDATASIZE PUSH1 0x1F NOT PUSH1 0x1F DUP3 ADD AND DUP3 ADD DUP1 PUSH1 0x40 MSTORE POP DUP2 ADD SWAP1 PUSH2 0x380 SWAP2 SWAP1 PUSH2 0xD59 JUMP JUMPDEST PUSH2 0x3BE JUMPI PUSH1 0x40 MLOAD PUSH3 0x461BCD PUSH1 0xE5 SHL DUP2 MSTORE PUSH1 0x20 PUSH1 0x4 DUP3 ADD MSTORE PUSH1 0xF PUSH1 0x24 DUP3 ADD MSTORE PUSH15 0x3AB730B13632903A3930B739B332B9 PUSH1 0x89 SHL PUSH1 0x44 DUP3 ADD MSTORE PUSH1 0x64 ADD PUSH2 0x263 JUMP JUMPDEST POP JUMP JUMPDEST PUSH1 0x1 SLOAD PUSH1 0x1 PUSH1 0x1 PUSH1 0xA0 SHL SUB AND CALLER EQ PUSH2 0x414 JUMPI PUSH1 0x40 MLOAD PUSH3 0x461BCD PUSH1 0xE5 SHL DUP2 MSTORE PUSH1 0x20 PUSH1 0x4 DUP3 ADD MSTORE PUSH1 0x16 PUSH1 0x24 DUP3 ADD MSTORE PUSH22 0x26BAB9BA10313290383937B837B9B2B21037BBB732B9 PUSH1 0x51 SHL PUSH1 0x44 DUP3 ADD MSTORE PUSH1 0x64 ADD PUSH2 0x263 JUMP JUMPDEST PUSH0 DUP1 SLOAD CALLER PUSH1 0x1 PUSH1 0x1 PUSH1 0xA0 SHL SUB NOT DUP1 DUP4 AND DUP3 OR DUP5 SSTORE PUSH1 0x1 DUP1 SLOAD SWAP1 SWAP2 AND SWAP1 SSTORE PUSH1 0x40 MLOAD PUSH1 0x1 PUSH1 0x1 PUSH1 0xA0 SHL SUB SWAP1 SWAP3 AND SWAP3 SWAP1 SWAP2 DUP4 SWAP2 PUSH32 0x8BE0079C531659141344CD1FD0A4F28419497F9722A3DAAFE3B4186F6B6457E0 SWAP2 LOG3 POP JUMP JUMPDEST PUSH1 0x3 DUP2 DUP2 SLOAD DUP2 LT PUSH2 0x479 JUMPI PUSH0 DUP1 REVERT JUMPDEST PUSH0 SWAP2 DUP3 MSTORE PUSH1 0x20 SWAP1 SWAP2 KECCAK256 ADD SLOAD SWAP1 POP DUP2 JUMP JUMPDEST PUSH2 0x491 PUSH2 0x863 JUMP JUMPDEST PUSH1 0x1 DUP1 SLOAD PUSH2 0xFFFF SWAP1 SWAP3 AND PUSH1 0x1 PUSH1 0xE0 SHL MUL PUSH2 0xFFFF PUSH1 0xE0 SHL NOT SWAP1 SWAP3 AND SWAP2 SWAP1 SWAP2 OR SWAP1 SSTORE JUMP JUMPDEST PUSH0 DUP2 DUP2 MSTORE PUSH1 0x2 PUSH1 0x20 MSTORE PUSH1 0x40 SWAP1 KECCAK256 SLOAD PUSH1 0x60 SWAP1 PUSH2 0x504 JUMPI PUSH1 0x40 MLOAD PUSH3 0x461BCD PUSH1 0xE5 SHL DUP2 MSTORE PUSH1 0x20 PUSH1 0x4 DUP3 ADD MSTORE PUSH1 0x11 PUSH1 0x24 DUP3 ADD MSTORE PUSH17 0x1C995C5D595CDD081B9BDD08199BDD5B99 PUSH1 0x7A SHL PUSH1 0x44 DUP3 ADD MSTORE PUSH1 0x64 ADD PUSH2 0x263 JUMP JUMPDEST PUSH0 DUP3 DUP2 MSTORE PUSH1 0x2 PUSH1 0x20 DUP2 DUP2 MSTORE PUSH1 0x40 SWAP3 DUP4 SWAP1 KECCAK256 SWAP1 SWAP2 ADD DUP1 SLOAD DUP4 MLOAD DUP2 DUP5 MUL DUP2 ADD DUP5 ADD SWAP1 SWAP5 MSTORE DUP1 DUP5 MSTORE SWAP1 SWAP2 DUP4 ADD DUP3 DUP3 DUP1 ISZERO PUSH2 0x558 JUMPI PUSH1 0x20 MUL DUP3 ADD SWAP2 SWAP1 PUSH0 MSTORE PUSH1 0x20 PUSH0 KECCAK256 SWAP1 JUMPDEST DUP2 SLOAD DUP2 MSTORE PUSH1 0x20 ADD SWAP1 PUSH1 0x1 ADD SWAP1 DUP1 DUP4 GT PUSH2 0x544 JUMPI JUMPDEST POP POP POP POP POP SWAP1 POP SWAP2 SWAP1 POP JUMP JUMPDEST PUSH2 0x56C PUSH2 0x863 JUMP JUMPDEST PUSH1 0x1 DUP1 SLOAD PUSH4 0xFFFFFFFF SWAP1 SWAP3 AND PUSH1 0x1 PUSH1 0xA0 SHL MUL PUSH4 0xFFFFFFFF PUSH1 0xA0 SHL NOT SWAP1 SWAP3 AND SWAP2 SWAP1 SWAP2 OR SWAP1 SSTORE JUMP JUMPDEST PUSH0 PUSH2 0x59B PUSH2 0x863 JUMP JUMPDEST PUSH1 0x1 SLOAD PUSH0 SWAP1 PUSH2 0x5CD SWAP1 PUSH4 0xFFFFFFFF PUSH1 0x1 PUSH1 0xA0 SHL DUP3 DIV DUP2 AND SWAP2 PUSH2 0xFFFF PUSH1 0x1 PUSH1 0xE0 SHL DUP3 DIV AND SWAP2 PUSH1 0x1 PUSH1 0xC0 SHL SWAP1 SWAP2 DIV AND PUSH2 0x8B7 JUMP JUMPDEST PUSH1 0x40 DUP1 MLOAD PUSH1 0x60 DUP2 ADD SWAP2 DUP3 SWAP1 MSTORE PUSH1 0x1 SLOAD PUSH4 0x10C1B4D5 PUSH1 0xE2 SHL SWAP1 SWAP3 MSTORE PUSH1 0x1 PUSH1 0xA0 SHL SWAP1 SWAP2 DIV PUSH4 0xFFFFFFFF AND PUSH1 0x64 DUP3 ADD MSTORE SWAP1 SWAP2 POP DUP1 PUSH32 0x0 PUSH1 0x1 PUSH1 0x1 PUSH1 0xA0 SHL SUB AND PUSH4 0x4306D354 PUSH1 0x84 DUP4 ADD PUSH1 0x20 PUSH1 0x40 MLOAD DUP1 DUP4 SUB DUP2 DUP7 GAS STATICCALL ISZERO DUP1 ISZERO PUSH2 0x64C JUMPI RETURNDATASIZE PUSH0 DUP1 RETURNDATACOPY RETURNDATASIZE PUSH0 REVERT JUMPDEST POP POP POP POP PUSH1 0x40 MLOAD RETURNDATASIZE PUSH1 0x1F NOT PUSH1 0x1F DUP3 ADD AND DUP3 ADD DUP1 PUSH1 0x40 MSTORE POP DUP2 ADD SWAP1 PUSH2 0x670 SWAP2 SWAP1 PUSH2 0xD42 JUMP JUMPDEST DUP2 MSTORE PUSH0 PUSH1 0x20 DUP1 DUP4 ADD DUP3 SWAP1 MSTORE PUSH1 0x40 DUP1 MLOAD DUP4 DUP2 MSTORE DUP1 DUP4 ADD DUP3 MSTORE SWAP4 DUP2 ADD SWAP4 SWAP1 SWAP4 MSTORE DUP5 DUP3 MSTORE PUSH1 0x2 DUP1 DUP3 MSTORE SWAP2 DUP4 SWAP1 KECCAK256 DUP5 MLOAD DUP2 SSTORE DUP5 DUP3 ADD MLOAD PUSH1 0x1 DUP3 ADD DUP1 SLOAD PUSH1 0xFF NOT AND SWAP2 ISZERO ISZERO SWAP2 SWAP1 SWAP2 OR SWAP1 SSTORE SWAP3 DUP5 ADD MLOAD DUP1 MLOAD PUSH2 0x6CC SWAP4 DUP6 ADD SWAP3 SWAP2 SWAP1 SWAP2 ADD SWAP1 PUSH2 0xB38 JUMP JUMPDEST POP POP PUSH1 0x3 DUP1 SLOAD PUSH1 0x1 DUP1 DUP3 ADD DUP4 SSTORE PUSH0 SWAP3 SWAP1 SWAP3 MSTORE PUSH32 0xC2575A0E9E593C00F959F8C92F12DB2869C3395A3B0502D05E2516446F71F85B ADD DUP4 SWAP1 SSTORE PUSH1 0x4 DUP4 SWAP1 SSTORE SLOAD PUSH1 0x40 DUP1 MLOAD DUP5 DUP2 MSTORE PUSH1 0x1 PUSH1 0xC0 SHL SWAP1 SWAP3 DIV PUSH4 0xFFFFFFFF AND PUSH1 0x20 DUP4 ADD MSTORE PUSH32 0xCC58B13AD3EAB50626C6A6300B1D139CD6EBB1688A7CCED9461C2F7E762665EE SWAP3 POP ADD PUSH1 0x40 MLOAD DUP1 SWAP2 SUB SWAP1 LOG1 SWAP1 POP SWAP1 JUMP JUMPDEST PUSH2 0x75C PUSH2 0x863 JUMP JUMPDEST PUSH2 0x3BE DUP2 PUSH2 0xA90 JUMP JUMPDEST PUSH2 0x76D PUSH2 0x863 JUMP JUMPDEST PUSH1 0x1 DUP1 SLOAD PUSH4 0xFFFFFFFF SWAP1 SWAP3 AND PUSH1 0x1 PUSH1 0xC0 SHL MUL PUSH4 0xFFFFFFFF PUSH1 0xC0 SHL NOT SWAP1 SWAP3 AND SWAP2 SWAP1 SWAP2 OR SWAP1 SSTORE JUMP JUMPDEST PUSH0 DUP3 DUP2 MSTORE PUSH1 0x2 PUSH1 0x20 MSTORE PUSH1 0x40 SWAP1 KECCAK256 SLOAD PUSH2 0x7E1 JUMPI PUSH1 0x40 MLOAD PUSH3 0x461BCD PUSH1 0xE5 SHL DUP2 MSTORE PUSH1 0x20 PUSH1 0x4 DUP3 ADD MSTORE PUSH1 0x11 PUSH1 0x24 DUP3 ADD MSTORE PUSH17 0x1C995C5D595CDD081B9BDD08199BDD5B99 PUSH1 0x7A SHL PUSH1 0x44 DUP3 ADD MSTORE PUSH1 0x64 ADD PUSH2 0x263 JUMP JUMPDEST PUSH0 DUP3 DUP2 MSTORE PUSH1 0x2 PUSH1 0x20 DUP2 DUP2 MSTORE PUSH1 0x40 SWAP1 SWAP3 KECCAK256 PUSH1 0x1 DUP2 DUP2 ADD DUP1 SLOAD PUSH1 0xFF NOT AND SWAP1 SWAP2 OR SWAP1 SSTORE DUP4 MLOAD PUSH2 0x815 SWAP4 SWAP2 SWAP1 SWAP3 ADD SWAP2 SWAP1 DUP5 ADD SWAP1 PUSH2 0xB38 JUMP JUMPDEST POP PUSH0 DUP3 DUP2 MSTORE PUSH1 0x2 PUSH1 0x20 MSTORE PUSH1 0x40 SWAP1 DUP2 SWAP1 KECCAK256 SLOAD SWAP1 MLOAD PUSH32 0x46D652F910C1C3F8651C7734DAD63E55DAA152581FFF0FAF06CF58F02A609E44 SWAP2 PUSH2 0x857 SWAP2 DUP6 SWAP2 DUP6 SWAP2 PUSH2 0xD78 JUMP JUMPDEST PUSH1 0x40 MLOAD DUP1 SWAP2 SUB SWAP1 LOG1 POP POP JUMP JUMPDEST PUSH0 SLOAD PUSH1 0x1 PUSH1 0x1 PUSH1 0xA0 SHL SUB AND CALLER EQ PUSH2 0x8B5 JUMPI PUSH1 0x40 MLOAD PUSH3 0x461BCD PUSH1 0xE5 SHL DUP2 MSTORE PUSH1 0x20 PUSH1 0x4 DUP3 ADD MSTORE PUSH1 0x16 PUSH1 0x24 DUP3 ADD MSTORE PUSH22 0x27B7363C9031B0B63630B1363290313C9037BBB732B9 PUSH1 0x51 SHL PUSH1 0x44 DUP3 ADD MSTORE PUSH1 0x64 ADD PUSH2 0x263 JUMP JUMPDEST JUMP JUMPDEST PUSH1 0x40 MLOAD PUSH4 0x10C1B4D5 PUSH1 0xE2 SHL DUP2 MSTORE PUSH4 0xFFFFFFFF DUP5 AND PUSH1 0x4 DUP3 ADD MSTORE PUSH0 SWAP1 PUSH1 0x1 PUSH1 0x1 PUSH1 0xA0 SHL SUB PUSH32 0x0 DUP2 AND SWAP2 PUSH4 0x4000AEA0 SWAP2 PUSH32 0x0 SWAP2 SWAP1 DUP3 AND SWAP1 PUSH4 0x4306D354 SWAP1 PUSH1 0x24 ADD PUSH1 0x20 PUSH1 0x40 MLOAD DUP1 DUP4 SUB DUP2 DUP7 GAS STATICCALL ISZERO DUP1 ISZERO PUSH2 0x94E JUMPI RETURNDATASIZE PUSH0 DUP1 RETURNDATACOPY RETURNDATASIZE PUSH0 REVERT JUMPDEST POP POP POP POP PUSH1 0x40 MLOAD RETURNDATASIZE PUSH1 0x1F NOT PUSH1 0x1F DUP3 ADD AND DUP3 ADD DUP1 PUSH1 0x40 MSTORE POP DUP2 ADD SWAP1 PUSH2 0x972 SWAP2 SWAP1 PUSH2 0xD42 JUMP JUMPDEST PUSH1 0x40 DUP1 MLOAD PUSH4 0xFFFFFFFF DUP1 DUP12 AND PUSH1 0x20 DUP4 ADD MSTORE PUSH2 0xFFFF DUP11 AND SWAP3 DUP3 ADD SWAP3 SWAP1 SWAP3 MSTORE SWAP1 DUP8 AND PUSH1 0x60 DUP3 ADD MSTORE PUSH1 0x80 ADD PUSH1 0x40 MLOAD PUSH1 0x20 DUP2 DUP4 SUB SUB DUP2 MSTORE SWAP1 PUSH1 0x40 MSTORE PUSH1 0x40 MLOAD DUP5 PUSH4 0xFFFFFFFF AND PUSH1 0xE0 SHL DUP2 MSTORE PUSH1 0x4 ADD PUSH2 0x9C7 SWAP4 SWAP3 SWAP2 SWAP1 PUSH2 0xDA0 JUMP JUMPDEST PUSH1 0x20 PUSH1 0x40 MLOAD DUP1 DUP4 SUB DUP2 PUSH0 DUP8 GAS CALL ISZERO DUP1 ISZERO PUSH2 0x9E3 JUMPI RETURNDATASIZE PUSH0 DUP1 RETURNDATACOPY RETURNDATASIZE PUSH0 REVERT JUMPDEST POP POP POP POP PUSH1 0x40 MLOAD RETURNDATASIZE PUSH1 0x1F NOT PUSH1 0x1F DUP3 ADD AND DUP3 ADD DUP1 PUSH1 0x40 MSTORE POP DUP2 ADD SWAP1 PUSH2 0xA07 SWAP2 SWAP1 PUSH2 0xD59 JUMP JUMPDEST POP PUSH32 0x0 PUSH1 0x1 PUSH1 0x1 PUSH1 0xA0 SHL SUB AND PUSH4 0xFC2A88C3 PUSH1 0x40 MLOAD DUP2 PUSH4 0xFFFFFFFF AND PUSH1 0xE0 SHL DUP2 MSTORE PUSH1 0x4 ADD PUSH1 0x20 PUSH1 0x40 MLOAD DUP1 DUP4 SUB DUP2 DUP7 GAS STATICCALL ISZERO DUP1 ISZERO PUSH2 0xA64 JUMPI RETURNDATASIZE PUSH0 DUP1 RETURNDATACOPY RETURNDATASIZE PUSH0 REVERT JUMPDEST POP POP POP POP PUSH1 0x40 MLOAD RETURNDATASIZE PUSH1 0x1F NOT PUSH1 0x1F DUP3 ADD AND DUP3 ADD DUP1 PUSH1 0x40 MSTORE POP DUP2 ADD SWAP1 PUSH2 0xA88 SWAP2 SWAP1 PUSH2 0xD42 JUMP JUMPDEST SWAP5 SWAP4 POP POP POP POP JUMP JUMPDEST CALLER PUSH1 0x1 PUSH1 0x1 PUSH1 0xA0 SHL SUB DUP3 AND SUB PUSH2 0xAE8 JUMPI PUSH1 0x40 MLOAD PUSH3 0x461BCD PUSH1 0xE5 SHL DUP2 MSTORE PUSH1 0x20 PUSH1 0x4 DUP3 ADD MSTORE PUSH1 0x17 PUSH1 0x24 DUP3 ADD MSTORE PUSH32 0x43616E6E6F74207472616E7366657220746F2073656C66000000000000000000 PUSH1 0x44 DUP3 ADD MSTORE PUSH1 0x64 ADD PUSH2 0x263 JUMP JUMPDEST PUSH1 0x1 DUP1 SLOAD PUSH1 0x1 PUSH1 0x1 PUSH1 0xA0 SHL SUB NOT AND PUSH1 0x1 PUSH1 0x1 PUSH1 0xA0 SHL SUB DUP4 DUP2 AND SWAP2 DUP3 OR SWAP1 SWAP3 SSTORE PUSH0 DUP1 SLOAD PUSH1 0x40 MLOAD SWAP3 SWAP4 AND SWAP2 PUSH32 0xED8889F560326EB138920D842192F0EB3DD22B4F139C87A2C57538E05BAE1278 SWAP2 SWAP1 LOG3 POP JUMP JUMPDEST DUP3 DUP1 SLOAD DUP3 DUP3 SSTORE SWAP1 PUSH0 MSTORE PUSH1 0x20 PUSH0 KECCAK256 SWAP1 DUP2 ADD SWAP3 DUP3 ISZERO PUSH2 0xB71 JUMPI SWAP2 PUSH1 0x20 MUL DUP3 ADD JUMPDEST DUP3 DUP2 GT ISZERO PUSH2 0xB71 JUMPI DUP3 MLOAD DUP3 SSTORE SWAP2 PUSH1 0x20 ADD SWAP2 SWAP1 PUSH1 0x1 ADD SWAP1 PUSH2 0xB56 JUMP JUMPDEST POP PUSH2 0xB7D SWAP3 SWAP2 POP PUSH2 0xB81 JUMP JUMPDEST POP SWAP1 JUMP JUMPDEST JUMPDEST DUP1 DUP3 GT ISZERO PUSH2 0xB7D JUMPI PUSH0 DUP2 SSTORE PUSH1 0x1 ADD PUSH2 0xB82 JUMP JUMPDEST PUSH4 0x4E487B71 PUSH1 0xE0 SHL PUSH0 MSTORE PUSH1 0x41 PUSH1 0x4 MSTORE PUSH1 0x24 PUSH0 REVERT JUMPDEST PUSH0 DUP1 PUSH1 0x40 DUP4 DUP6 SUB SLT ISZERO PUSH2 0xBBA JUMPI PUSH0 DUP1 REVERT JUMPDEST DUP3 CALLDATALOAD SWAP2 POP PUSH1 0x20 DUP1 DUP5 ADD CALLDATALOAD PUSH8 0xFFFFFFFFFFFFFFFF DUP1 DUP3 GT ISZERO PUSH2 0xBD9 JUMPI PUSH0 DUP1 REVERT JUMPDEST DUP2 DUP7 ADD SWAP2 POP DUP7 PUSH1 0x1F DUP4 ADD SLT PUSH2 0xBEC JUMPI PUSH0 DUP1 REVERT JUMPDEST DUP2 CALLDATALOAD DUP2 DUP2 GT ISZERO PUSH2 0xBFE JUMPI PUSH2 0xBFE PUSH2 0xB95 JUMP JUMPDEST DUP1 PUSH1 0x5 SHL PUSH1 0x40 MLOAD PUSH1 0x1F NOT PUSH1 0x3F DUP4 ADD AND DUP2 ADD DUP2 DUP2 LT DUP6 DUP3 GT OR ISZERO PUSH2 0xC23 JUMPI PUSH2 0xC23 PUSH2 0xB95 JUMP JUMPDEST PUSH1 0x40 MSTORE SWAP2 DUP3 MSTORE DUP5 DUP3 ADD SWAP3 POP DUP4 DUP2 ADD DUP6 ADD SWAP2 DUP10 DUP4 GT ISZERO PUSH2 0xC40 JUMPI PUSH0 DUP1 REVERT JUMPDEST SWAP4 DUP6 ADD SWAP4 JUMPDEST DUP3 DUP6 LT ISZERO PUSH2 0xC5E JUMPI DUP5 CALLDATALOAD DUP5 MSTORE SWAP4 DUP6 ADD SWAP4 SWAP3 DUP6 ADD SWAP3 PUSH2 0xC45 JUMP JUMPDEST DUP1 SWAP7 POP POP POP POP POP POP POP SWAP3 POP SWAP3 SWAP1 POP JUMP JUMPDEST PUSH0 PUSH1 0x20 DUP3 DUP5 SUB SLT ISZERO PUSH2 0xC7E JUMPI PUSH0 DUP1 REVERT JUMPDEST POP CALLDATALOAD SWAP2 SWAP1 POP JUMP JUMPDEST PUSH0 PUSH1 0x20 DUP3 DUP5 SUB SLT ISZERO PUSH2 0xC95 JUMPI PUSH0 DUP1 REVERT JUMPDEST DUP2 CALLDATALOAD PUSH2 0xFFFF DUP2 AND DUP2 EQ PUSH2 0xCA6 JUMPI PUSH0 DUP1 REVERT JUMPDEST SWAP4 SWAP3 POP POP POP JUMP JUMPDEST PUSH0 DUP2 MLOAD DUP1 DUP5 MSTORE PUSH1 0x20 DUP1 DUP6 ADD SWAP5 POP PUSH1 0x20 DUP5 ADD PUSH0 JUMPDEST DUP4 DUP2 LT ISZERO PUSH2 0xCDC JUMPI DUP2 MLOAD DUP8 MSTORE SWAP6 DUP3 ADD SWAP6 SWAP1 DUP3 ADD SWAP1 PUSH1 0x1 ADD PUSH2 0xCC0 JUMP JUMPDEST POP SWAP5 SWAP6 SWAP5 POP POP POP POP POP JUMP JUMPDEST PUSH1 0x20 DUP2 MSTORE PUSH0 PUSH2 0xCA6 PUSH1 0x20 DUP4 ADD DUP5 PUSH2 0xCAD JUMP JUMPDEST PUSH0 PUSH1 0x20 DUP3 DUP5 SUB SLT ISZERO PUSH2 0xD09 JUMPI PUSH0 DUP1 REVERT JUMPDEST DUP2 CALLDATALOAD PUSH4 0xFFFFFFFF DUP2 AND DUP2 EQ PUSH2 0xCA6 JUMPI PUSH0 DUP1 REVERT JUMPDEST PUSH0 PUSH1 0x20 DUP3 DUP5 SUB SLT ISZERO PUSH2 0xD2C JUMPI PUSH0 DUP1 REVERT JUMPDEST DUP2 CALLDATALOAD PUSH1 0x1 PUSH1 0x1 PUSH1 0xA0 SHL SUB DUP2 AND DUP2 EQ PUSH2 0xCA6 JUMPI PUSH0 DUP1 REVERT JUMPDEST PUSH0 PUSH1 0x20 DUP3 DUP5 SUB SLT ISZERO PUSH2 0xD52 JUMPI PUSH0 DUP1 REVERT JUMPDEST POP MLOAD SWAP2 SWAP1 POP JUMP JUMPDEST PUSH0 PUSH1 0x20 DUP3 DUP5 SUB SLT ISZERO PUSH2 0xD69 JUMPI PUSH0 DUP1 REVERT JUMPDEST DUP2 MLOAD DUP1 ISZERO ISZERO DUP2 EQ PUSH2 0xCA6 JUMPI PUSH0 DUP1 REVERT JUMPDEST DUP4 DUP2 MSTORE PUSH1 0x60 PUSH1 0x20 DUP3 ADD MSTORE PUSH0 PUSH2 0xD90 PUSH1 0x60 DUP4 ADD DUP6 PUSH2 0xCAD JUMP JUMPDEST SWAP1 POP DUP3 PUSH1 0x40 DUP4 ADD MSTORE SWAP5 SWAP4 POP POP POP POP JUMP JUMPDEST PUSH1 0x1 DUP1 PUSH1 0xA0 SHL SUB DUP5 AND DUP2 MSTORE PUSH0 PUSH1 0x20 DUP5 PUSH1 0x20 DUP5 ADD MSTORE PUSH1 0x60 PUSH1 0x40 DUP5 ADD MSTORE DUP4 MLOAD DUP1 PUSH1 0x60 DUP6 ADD MSTORE PUSH0 JUMPDEST DUP2 DUP2 LT ISZERO PUSH2 0xDE1 JUMPI DUP6 DUP2 ADD DUP4 ADD MLOAD DUP6 DUP3 ADD PUSH1 0x80 ADD MSTORE DUP3 ADD PUSH2 0xDC5 JUMP JUMPDEST POP PUSH0 PUSH1 0x80 DUP3 DUP7 ADD ADD MSTORE PUSH1 0x80 PUSH1 0x1F NOT PUSH1 0x1F DUP4 ADD AND DUP6 ADD ADD SWAP3 POP POP POP SWAP5 SWAP4 POP POP POP POP JUMP INVALID LOG2 PUSH5 0x6970667358 0x22 SLT KECCAK256 0x2D TIMESTAMP SWAP9 0xE6 SWAP8 BLOBBASEFEE SHR 0xF ADDMOD 0xBA 0xB6 PUSH14 0xCBF0EC7AA3936D8040E8CA0E7D02 0xA7 SHL MOD PUSH30 0x84A264736F6C634300081800330000000000000000000000000000000000 "
				},
				"gasEstimates": {
					"creation": {
						"codeDepositCost": "728200",
						"executionCost": "infinite",
						"totalCost": "infinite"
					},
					"external": {
						"acceptOwnership()": "52342",
						"getResult(uint256)": "infinite",
						"lastRequestId()": "2382",
						"owner()": "2322",
						"rawFulfillRandomWords(uint256,uint256[])": "infinite",
						"requestIds(uint256)": "4661",
						"requestRandom()": "infinite",
						"requests(uint256)": "4636",
						"setCallbackGasLimit(uint32)": "26751",
						"setNumWords(uint32)": "26750",
						"setRequestConfirmations(uint16)": "26795",
						"transferOwnership(address)": "30441",
						"withdraw()": "infinite"
					},
					"internal": {
						"fulfillRandomWords(uint256,uint256[] memory)": "infinite"
					}
				},
				"methodIdentifiers": {
					"acceptOwnership()": "79ba5097",
					"getResult(uint256)": "995e4339",
					"lastRequestId()": "fc2a88c3",
					"owner()": "8da5cb5b",
					"rawFulfillRandomWords(uint256,uint256[])": "1fe543e3",
					"requestIds(uint256)": "8796ba8c",
					"requestRandom()": "da9f7550",
					"requests(uint256)": "81d12c58",
					"setCallbackGasLimit(uint32)": "a4eb718c",
					"setNumWords(uint32)": "f30c07d3",
					"setRequestConfirmations(uint16)": "8824f5a7",
					"transferOwnership(address)": "f2fde38b",
					"withdraw()": "3ccfd60b"
				}
			},
			"storageLayout": {
				"storage": [
					{
						"astId": 54,
						"contract": "contracts/oracle/VRFDirectFunding.sol:VRFDirectFunding",
						"label": "s_owner",
						"offset": 0,
						"slot": "0",
						"type": "t_address"
					},
					{
						"astId": 56,
						"contract": "contracts/oracle/VRFDirectFunding.sol:VRFDirectFunding",
						"label": "s_pendingOwner",
						"offset": 0,
						"slot": "1",
						"type": "t_address"
					},
					{
						"astId": 433,
						"contract": "contracts/oracle/VRFDirectFunding.sol:VRFDirectFunding",
						"label": "callbackGasLimit",
						"offset": 20,
						"slot": "1",
						"type": "t_uint32"
					},
					{
						"astId": 436,
						"contract": "contracts/oracle/VRFDirectFunding.sol:VRFDirectFunding",
						"label": "numWords",
						"offset": 24,
						"slot": "1",
						"type": "t_uint32"
					},
					{
						"astId": 439,
						"contract": "contracts/oracle/VRFDirectFunding.sol:VRFDirectFunding",
						"label": "requestConfirmations",
						"offset": 28,
						"slot": "1",
						"type": "t_uint16"
					},
					{
						"astId": 452,
						"contract": "contracts/oracle/VRFDirectFunding.sol:VRFDirectFunding",
						"label": "requests",
						"offset": 0,
						"slot": "2",
						"type": "t_mapping(t_uint256,t_struct(Request)447_storage)"
					},
					{
						"astId": 455,
						"contract": "contracts/oracle/VRFDirectFunding.sol:VRFDirectFunding",
						"label": "requestIds",
						"offset": 0,
						"slot": "3",
						"type": "t_array(t_uint256)dyn_storage"
					},
					{
						"astId": 457,
						"contract": "contracts/oracle/VRFDirectFunding.sol:VRFDirectFunding",
						"label": "lastRequestId",
						"offset": 0,
						"slot": "4",
						"type": "t_uint256"
					}
				],
				"types": {
					"t_address": {
						"encoding": "inplace",
						"label": "address",
						"numberOfBytes": "20"
					},
					"t_array(t_uint256)dyn_storage": {
						"base": "t_uint256",
						"encoding": "dynamic_array",
						"label": "uint256[]",
						"numberOfBytes": "32"
					},
					"t_bool": {
						"encoding": "inplace",
						"label": "bool",
						"numberOfBytes": "1"
					},
					"t_mapping(t_uint256,t_struct(Request)447_storage)": {
						"encoding": "mapping",
						"key": "t_uint256",
						"label": "mapping(uint256 => struct VRFDirectFunding.Request)",
						"numberOfBytes": "32",
						"value": "t_struct(Request)447_storage"
					},
					"t_struct(Request)447_storage": {
						"encoding": "inplace",
						"label": "struct VRFDirectFunding.Request",
						"members": [
							{
								"astId": 441,
								"contract": "contracts/oracle/VRFDirectFunding.sol:VRFDirectFunding",
								"label": "paid",
								"offset": 0,
								"slot": "0",
								"type": "t_uint256"
							},
							{
								"astId": 443,
								"contract": "contracts/oracle/VRFDirectFunding.sol:VRFDirectFunding",
								"label": "fulfilled",
								"offset": 0,
								"slot": "1",
								"type": "t_bool"
							},
							{
								"astId": 446,
								"contract": "contracts/oracle/VRFDirectFunding.sol:VRFDirectFunding",
								"label": "randomWords",
								"offset": 0,
								"slot": "2",
								"type": "t_array(t_uint256)dyn_storage"
							}
						],
						"numberOfBytes": "96"
					},
					"t_uint16": {
						"encoding": "inplace",
						"label": "uint16",
						"numberOfBytes": "2"
					},
					"t_uint256": {
						"encoding": "inplace",
						"label": "uint256",
						"numberOfBytes": "32"
					},
					"t_uint32": {
						"encoding": "inplace",
						"label": "uint32",
						"numberOfBytes": "4"
					}
				}
			},
			"userdoc": {
				"kind": "user",
				"methods": {
					"acceptOwnership()": {
						"notice": "Allows an ownership transfer to be completed by the recipient."
					},
					"owner()": {
						"notice": "Get the current owner"
					},
					"transferOwnership(address)": {
						"notice": "Allows an owner to begin transferring ownership to a new address, pending."
					}
				},
				"version": 1
			}
		}
	}
}